{
  "contractName": "Blake3",
  "abi": [
    {
      "inputs": [],
      "payable": false,
      "stateMutability": "nonpayable",
      "type": "constructor"
    },
    {
      "constant": true,
      "inputs": [
        {
          "internalType": "bytes32",
          "name": "in_cv",
          "type": "bytes32"
        },
        {
          "internalType": "bytes32[2]",
          "name": "in_m",
          "type": "bytes32[2]"
        },
        {
          "internalType": "uint64",
          "name": "t",
          "type": "uint64"
        },
        {
          "internalType": "uint32",
          "name": "b",
          "type": "uint32"
        },
        {
          "internalType": "uint32",
          "name": "d",
          "type": "uint32"
        }
      ],
      "name": "compress",
      "outputs": [
        {
          "internalType": "bytes32[2]",
          "name": "output",
          "type": "bytes32[2]"
        }
      ],
      "payable": false,
      "stateMutability": "view",
      "type": "function"
    },
    {
      "constant": true,
      "inputs": [
        {
          "internalType": "bytes32",
          "name": "cv",
          "type": "bytes32"
        },
        {
          "internalType": "bytes32[32]",
          "name": "message",
          "type": "bytes32[32]"
        },
        {
          "internalType": "uint32",
          "name": "len_m",
          "type": "uint32"
        },
        {
          "internalType": "uint64",
          "name": "t",
          "type": "uint64"
        },
        {
          "internalType": "bool",
          "name": "is_root",
          "type": "bool"
        }
      ],
      "name": "process_chunk",
      "outputs": [
        {
          "internalType": "bytes32[2]",
          "name": "slice",
          "type": "bytes32[2]"
        }
      ],
      "payable": false,
      "stateMutability": "view",
      "type": "function"
    },
    {
      "constant": true,
      "inputs": [
        {
          "internalType": "bytes",
          "name": "input",
          "type": "bytes"
        },
        {
          "internalType": "bytes32",
          "name": "key",
          "type": "bytes32"
        }
      ],
      "name": "keyed_hash",
      "outputs": [
        {
          "internalType": "bytes32[2]",
          "name": "m",
          "type": "bytes32[2]"
        }
      ],
      "payable": false,
      "stateMutability": "view",
      "type": "function"
    }
  ],
  "bytecode": "0x608060405234801561001057600080fd5b50610ab6806100206000396000f3fe608060405234801561001057600080fd5b50600436106100415760003560e01c806338ad6520146100465780637a82c28d14610122578063ad5fe51d14610201575b600080fd5b6100e4600480360361048081101561005d57600080fd5b810190808035906020019092919080610400019060208060200260405190810160405280929190826020800280828437600081840152601f19601f8201169050808301925050505050509192919290803563ffffffff169060200190929190803567ffffffffffffffff169060200190929190803515159060200190929190505050610302565b6040518082600260200280838360005b8381101561010f5780820151818401526020810190506100f4565b5050505090500191505060405180910390f35b6101c3600480360360c081101561013857600080fd5b810190808035906020019092919080604001906002806020026040519081016040528092919082600260200280828437600081840152601f19601f8201169050808301925050505050509192919290803567ffffffffffffffff169060200190929190803563ffffffff169060200190929190803563ffffffff16906020019092919050505061058e565b6040518082600260200280838360005b838110156101ee5780820151818401526020810190506101d3565b5050505090500191505060405180910390f35b6102c46004803603604081101561021757600080fd5b810190808035906020019064010000000081111561023457600080fd5b82018360208201111561024657600080fd5b8035906020019184600183028401116401000000008311171561026857600080fd5b91908080601f016020809104026020016040519081016040528093929190818152602001838380828437600081840152601f19601f820116905080830192505050505050509192919290803590602001909291905050506106fe565b6040518082600260200280838360005b838110156102ef5780820151818401526020810190506102d4565b5050505090500191505060405180910390f35b61030a610a1a565b600060068563ffffffff16901c90506000603f8616905060008060008863ffffffff16600014156103b2578615610342576008811790505b8960006020811061034f57fe5b60200201518660006002811061036157fe5b6020020181815250508960016020811061037757fe5b60200201518660016002811061038957fe5b6020020181815250506103a68b878a60008560026001171761058e565b95505050505050610585565b600063ffffffff168463ffffffff1614156103d2576001850392506103d6565b8492505b600091505b8463ffffffff168263ffffffff1610156104c557896002830263ffffffff166020811061040457fe5b60200201518660006002811061041657fe5b602002018181525050896001600284020163ffffffff166020811061043757fe5b60200201518660016002811061044957fe5b6020020181815250506000905060008263ffffffff16141561046c576001811790505b8263ffffffff168263ffffffff161415610494576002811790508615610493576008811790505b5b6104a28b878a60408561058e565b9550856000600281106104b157fe5b60200201519a5081806001019250506103db565b60008463ffffffff161461057c576002905060008563ffffffff1614156104ed576001811790505b86156104fa576008811790505b60008463ffffffff161461057b57896002860263ffffffff166020811061051d57fe5b60200201518660006002811061052f57fe5b602002018181525050896001600287020163ffffffff166020811061055057fe5b60200201518660016002811061056257fe5b6020020181815250506105788b878a878561058e565b95505b5b85955050505050505b95945050505050565b610596610a1a565b61059e610a3c565b86816000600481106105ac57fe5b602002018181525050856000600281106105c257fe5b6020020151816001600481106105d457fe5b602002018181525050856001600281106105ea57fe5b6020020151816002600481106105fc57fe5b6020020181815250506000801b8160036004811061061657fe5b60200201818152505060c067ffffffffffffffff861667ffffffffffffffff16901b60001b8160036004811061064857fe5b6020020151178160036004811061065b57fe5b60200201818152505060a063ffffffff851663ffffffff16901b60001b8160036004811061068557fe5b6020020151178160036004811061069857fe5b602002018181525050608063ffffffff841663ffffffff16901b60001b816003600481106106c257fe5b602002015117816003600481106106d557fe5b60200201818152505060408260708360135afa6106f157600080fd5b8191505095945050505050565b610706610a1a565b600080600061071586516109cc565b80935081945050508551600a83901b101561073557600182019050610739565b8190505b60608360405190808252806020026020018201604052801561076a5781602001602082028038833980820191505090505b509050610775610a5e565b600080600080600080905060005b888267ffffffffffffffff1610156109ba57610400820260200167ffffffffffffffff169250610400600183010260200167ffffffffffffffff169a508d5160208c0311156107d45760208e51019a505b8294505b8a85101561081357848e0151955085876020858803816107f457fe5b04602081106107ff57fe5b6020020181815250506020850194506107d8565b600189141561083f5761082d8d88858e0360006001610302565b9b5050505050505050505050506109c6565b61084f8d88858e03856000610302565b9b508b60006002811061085e57fe5b602002015188858151811061086f57fe5b6020026020010181815250506001840193506001820191508190505b60008167ffffffffffffffff161180156108b2575060006001821667ffffffffffffffff16145b156109b55760028167ffffffffffffffff16816108cb57fe5b0490506002840393508784815181106108e057fe5b60200260200101518c6000600281106108f557fe5b60200201818152505087600185018151811061090d57fe5b60200260200101518c60016002811061092257fe5b602002018181525050888267ffffffffffffffff161480156109445750600084145b1561096e5761095c8d8d60006040600860041761058e565b9b5050505050505050505050506109c6565b61097e8d8d60006040600461058e565b9b508b60006002811061098d57fe5b602002015188858151811061099e57fe5b60200260200101818152505060018401935061088b565b610783565b50505050505050505050505b92915050565b600080600a83901c9050600081905060006103ff8516146109ee576001810190505b600192506000600190505b81811015610a1357600184019350600181901b90506109f9565b5050915091565b6040518060400160405280600290602082028038833980820191505090505090565b6040518060800160405280600490602082028038833980820191505090505090565b60405180610400016040528060209060208202803883398082019150509050509056fea265627a7a7231582090ccc1019960c914fecf9269967b8aecb0ca4226dd1875cef0d116329006467264736f6c63430005100032",
  "source": "pragma solidity >= 0.5.0;\n\ncontract Blake3 {\n\n  uint32 constant IV0 = 0x6a09e667;\n  uint32 constant IV1 = 0xbb67ae85;\n  uint32 constant IV2 = 0x3c6ef372;\n  uint32 constant IV3 = 0xa54ff53a;\n  uint32 constant IV4 = 0x510e527f;\n  uint32 constant IV5 = 0x9b05688c;\n  uint32 constant IV6 = 0x1f83d9ab;\n  uint32 constant IV7 = 0x5be0cd19;\n\n  uint32 constant         CHUNK_START = 0x01;\n  uint32 constant           CHUNK_END = 0x02;\n  uint32 constant              PARENT = 0x04;\n  uint32 constant                ROOT = 0x08;\n  uint32 constant          KEYED_HASH = 0x10;\n  uint32 constant  DERIVE_KEY_CONTEXT = 0x20;\n  uint32 constant DERIVE_KEY_MATERIAL = 0x40;\n\n  constructor() public {\n  }\n\n  // function tada() public returns (bytes32[2] memory c) {\n\n  //   uint256[3] memory input;\n  //   input[0] = 1;\n  //   input[1] = 2;\n  //   input[2] = 3;\n\n  //   assembly {\n\t// \t\tlet x := mload(0x40)    //Find empty storage location using \"free memory pointer\"\n\n\t// \t\t// mstore(xti, 2)            //Place size\n\t// \t\t// mstore(add(x,0x04), 123)  //Place first argument directly next to signature\n\t// \t\t// mstore(add(x,0x24), 456)  //Place second argument next to first, padded to 32 bytes\n\n\t// \t\tlet success := staticcall(      //This is the critical change (Pop the top stack value)\n\t// \t\t\t\t\t\t\tgas(),      //gas\n\t// \t\t\t\t\t\t\t0x13,       //Contract addr\n\t// \t\t\t\t\t\t\t// 0, //No value\n\t// \t\t\t\t\t\t\tinput,      //Inputs are stored at location x\n\t// \t\t\t\t\t\t\t96,        //Input number of bytes\n\t// \t\t\t\t\t\t\tx,         //Output address\n\t// \t\t\t\t\t\t\t96)        //Output number of bytes\n\n  //     mstore(c, mload(x))\n  //     mstore(add(c, 32), mload(add(x, 32)))\n  //     mstore(add(c, 64), mload(add(x, 64)))\n\n\t// \t\tmstore(0x40,add(x,0x44))    // Set storage pointer to empty space\n\t// \t}\n\t// }\n\n  function compress(\n    bytes32           in_cv,    // chaining value\n    bytes32[2] memory in_m,     // message\n    uint64            t,        // counter - t=t0t1 - t0 lower order, t1 higher order\n    uint32            b,        // number of bytes in the block\n    uint32            d         // flags\n  ) public view\n  returns (bytes32[2] memory output)\n  {\n    bytes32[4] memory input;\n\n    input[0] = in_cv;\n    input[1] = in_m[0];\n    input[2] = in_m[1];\n    input[3] = 0;\n    input[3] = input[3] | bytes32((uint256(t & 0xffffffffffffffff) << 192));\n    input[3] = input[3] | bytes32((uint256(b & 0xffffffff) << 160));\n    input[3] = input[3] | bytes32((uint256(d & 0xffffffff) << 128));\n\n    assembly {\n\n\t\t\t// mstore(xti, 2)            //Place size\n\t\t\t// mstore(add(x,0x04), 123)  //Place first argument directly next to signature\n\t\t\t// mstore(add(x,0x24), 456)  //Place second argument next to first, padded to 32 bytes\n\n\t\t\tif iszero(staticcall(      //This is the critical change (Pop the top stack value)\n\t\t\t\t\t\t\t\tgas(),      //gas\n\t\t\t\t\t\t\t\t0x13,       //Contract addr\n\t\t\t\t\t\t\t\t// 0, //No value\n\t\t\t\t\t\t\t\tinput,     //Inputs are stored at location x\n\t\t\t\t\t\t\t\t112,       //Input number of bytes\n\t\t\t\t\t\t\t\toutput,         //Output address\n\t\t\t\t\t\t\t\t64)        //Output number of bytes\n      ) {\n        revert(0, 0)\n      }\n\n\t\t}\n\n    return output;\n  }\n\n  function process_chunk(\n    bytes32               cv,       // chaining value\n    bytes32[32] memory    message,  // message\n    uint32                len_m,    // message size\n    uint64                t,        // chunk number\n    bool                  is_root   // root or not\n  ) public view\n  returns (bytes32[2] memory slice)\n  {\n    uint32 num_full_blocks = len_m >> 6;    // div 64\n    uint32 last_block_sz = len_m & 0x3f;    // mod 64\n    uint32 last_block;\n    uint32 i;\n    uint32 d;\n\n\n    if (0 == len_m) {\n      if (is_root) {\n        d = d | ROOT;\n      }\n      slice[0] = message[0];\n      slice[1] = message[1];\n      return compress(cv, slice, t, 0, CHUNK_START | CHUNK_END | d);\n    }\n\n    if (last_block_sz == uint32(0)) {\n      last_block = num_full_blocks - 1;\n    }\n    else {\n      last_block = num_full_blocks;\n    }\n\n    for (i = 0; i < num_full_blocks; i++) {\n\n      // prepare message for compression\n      slice[0] = message[i*2];\n      slice[1] = message[i*2 + 1];\n\n      // prepare flags\n      d = 0;\n\n      if (i == 0) {\n        d = d | CHUNK_START;\n      }\n\n      if (i == last_block) {\n        d = d | CHUNK_END;\n        if (is_root) {\n          d = d | ROOT;\n        }\n      }\n\n      slice = compress(cv, slice, t, 64, d);\n\n      // truncate result\n      cv = slice[0];\n\n    }\n\n    if (last_block_sz != 0) {\n      d = CHUNK_END;\n      if (num_full_blocks == 0) {\n        d = d | CHUNK_START;\n      }\n      if (is_root) {\n        d = d | ROOT;\n      }\n\n      if (last_block_sz != 0) {\n        slice[0] = message[num_full_blocks * 2];\n        slice[1] = message[num_full_blocks * 2 + 1];\n        slice = compress(cv, slice, t, last_block_sz, d);\n      }\n    }\n\n    return slice;\n  }\n\n  // function keyed_hash(\n  //   bytes memory input,\n  //   bytes32 key\n  // ) public view\n  // returns (bytes32[2] memory)\n  // {\n    \n  //   bytes32[2] memory m1;\n  //   bytes32[2] memory m2;\n  //   bytes32[2] memory m3;\n\n  //   bytes32[32] memory message;\n  //   uint256 i;\n  //   bytes32 temp;\n\n  //   for( i = 32; i <= 1024; i = i + 32) {\n  //     assembly {\n  //       temp := mload(add(input, i))\n  //     }\n  //     message[(i-32)/32] = temp;\n  //   }\n\n  //   m1 = process_chunk(key, message, 1024, 0, false);\n    \n  //   for( i = 32 + 1024; i <= 2048; i = i + 32) {\n  //     assembly {\n  //       temp := mload(add(input, i))\n  //     }\n  //     message[(i-32-1024)/32] = temp;\n  //   }\n\n  //   m2 = process_chunk(key, message, 1024, 1, false);\n    \n  //   m3[0] = m1[0];\n  //   m3[1] = m2[0];\n  //   return m2;\n\n  //   return compress(key, m3, 0, 64, PARENT | ROOT);\n  // }\n\n\n\n  // function keyed_hash(\n  //   bytes memory input,\n  //   bytes32 key\n  // ) public view\n  // returns (bytes32[2] memory)\n  // {\n  //   uint256 i;\n  //   uint256 j;\n\n  //   bytes32 temp;\n  //   bytes32[32] memory message;\n\n  //   bytes32[2] memory m;\n  //   bytes32[2] memory res;\n\n  //   uint256 stack_size;\n  //   uint256 num_chunks;\n\n  //   (stack_size, num_chunks) = stack_size_num_chunks(input.length);\n  //   bytes32[] memory stack = new bytes32[](stack_size);\n\n  //   uint32 stack_index = 0;\n  //   uint64 chunk_nb = 0;\n  //   uint64 aux_chunk_nb;\n  //   // uint32 max = 0;\n\n\n  //   for (i = 0; i < input.length; i += 1024) {\n\n  //     for(j = i; j < i+1024; j = j + 32) {\n  //       assembly {\n  //         temp := mload(add(input, j))\n  //       }\n  //       message[(j-i)/32] = temp;\n  //     }\n  //     res = process_chunk(key, message, 1024, chunk_nb, false);\n\n  //     stack[stack_index] = res[0];\n\n  //     stack_index += 1;\n\n  //     chunk_nb += 1;\n  //     aux_chunk_nb = chunk_nb;\n  //     // max = 0;\n  //     while ((aux_chunk_nb > 0) && (aux_chunk_nb & 1 == 0)) {\n  //       // max += 1;\n  //       // if (max == 100) {\n  //       //   res[0] = uint32(aux_chunk_nb);\n  //       //   return res;\n  //       // }\n  //       aux_chunk_nb = aux_chunk_nb / 2;\n\n  //       stack_index -= 2;\n  //       m[0] = stack[stack_index];\n  //       m[1] = stack[stack_index + 1];\n\n  //       if ( (chunk_nb == num_chunks) && (stack_index == 0) ) {\n  //         return compress(key, m, 0, 64, PARENT | ROOT);\n  //       }\n\n  //       res = compress(key, m, 0, 64, PARENT);\n  //       stack[stack_index] = res[0];\n  //       stack_index += 1;\n\n  //     }\n\n  //   }\n\n  //   return res;\n  // }\n\n  // function hash(\n  //   bytes memory input\n  // ) public view\n  // returns (uint32[16] memory)\n  // {\n  //   uint32[8] memory key = [IV0, IV1, IV2, IV3, IV4, IV5, IV6, IV7];\n  //   return keyed_hash(input, key);\n  // }\n\n  function keyed_hash(\n    bytes memory input,\n    bytes32 key\n  ) public view\n  returns (bytes32[2] memory m) {\n\n    uint256 s;\n    uint256 num_full_chunks;\n    uint256 total_chunks;\n    // prepare stack\n    (s, num_full_chunks) = stack_size_num_chunks(input.length);\n    if (num_full_chunks << 10 < input.length) {\n      total_chunks = num_full_chunks + 1;\n    }\n    else {\n      total_chunks = num_full_chunks;\n    }\n    bytes32[] memory stack = new bytes32[](s);\n    bytes32[32] memory message;\n    bytes32 temp;\n\n    uint256 i;\n    uint256 stack_index;\n    uint256 p;\n\n    uint64 chunk_id = 0;\n    uint64 aux_chunk_id;\n\n\n    while (chunk_id < total_chunks) {\n\n      p = 32 + chunk_id * 1024;\n      s = 32 + (chunk_id + 1) * 1024;\n      if (s - 32 > input.length) {\n        s = input.length + 32;\n      }\n      for( i = p; i < s; i = i + 32) {\n        assembly {\n          temp := mload(add(input, i))\n        }\n        message[(i-p)/32] = temp;\n      }\n\n      if (total_chunks == 1) {\n        return process_chunk(key, message, uint32(s-p), 0, true);\n      }\n      m = process_chunk(key, message, uint32(s-p), chunk_id, false);\n\n      stack[stack_index] = m[0];\n      stack_index += 1;\n\n      chunk_id += 1;\n      aux_chunk_id = chunk_id;\n      while ((aux_chunk_id > 0) && (aux_chunk_id & 1 == 0)) {\n        aux_chunk_id = aux_chunk_id / 2;\n        stack_index = stack_index - 2;\n        m[0] = stack[stack_index];\n        m[1] = stack[stack_index + 1];\n        if( (chunk_id == total_chunks) && (stack_index == 0) ) {\n          return compress(key, m, 0, 64, PARENT | ROOT);\n        }\n        m = compress(key, m, 0, 64, PARENT);\n        stack[stack_index] = m[0];\n        stack_index += 1;\n      }\n\n    }\n  }\n\n  function stack_size_num_chunks(uint256 input_size)\n    private pure  // total_chunks is converted to last_chunk_size right before return\n    returns (uint256 stack_size, uint256 num_full_chunks) {\n      // = size // 1024\n      num_full_chunks = input_size >> 10;\n\n      uint256 total_chunks = num_full_chunks;\n      if (input_size & 0x3ff != 0) {\n        // There must be one more chunk with 0 < its's size < 1024\n        total_chunks += 1;\n      }\n\n      // should be log2(total_chunks) + 1\n      stack_size = 1;\n      for (uint256 i = 1; i < total_chunks; i <<= 1) {\n        stack_size += 1;\n      }\n\n  }\n\n  // function mybytestouint32(bytes memory input)\n  //   public pure\n  // returns (uint32[16] memory) {\n  //   // takes in at most 64 bytes\n  //   // returns an array of unsigned integers\n  //   uint data_ptr;\n  //   uint state_ptr;\n  //   uint i;\n  //   uint32[16] memory ret;\n\n  //   assembly {\n  //     data_ptr := add(input, 1)\n  //     state_ptr := add(ret, 31)\n  //   }\n\n  //   while (i < input.length) {\n      \n  //     assembly {\n  //       mstore8(state_ptr, mload(data_ptr))\n  //       data_ptr := add(data_ptr, 1)\n  //       state_ptr := sub(state_ptr, 1)\n\n  //       i := add(i, 1)\n  //     }\n\n  //     if (0 == (i & 0x3) ) {\n  //       state_ptr += 36;\n  //     }\n      \n  //   }\n\n  //   return ret;\n  // }\n\n}\n",
  "sourcePath": "/Users/ionutcosmin/Documents/Dizertatie/blockchain/contracts/Blake3.sol",
  "compiler": {
    "name": "solc",
    "version": "0.5.16+commit.9c3226ce.Emscripten.clang"
  },
  "schemaVersion": "3.1.0",
  "updatedAt": "2021-02-17T11:15:43.786Z",
  "networkType": "ethereum",
  "devdoc": {
    "methods": {}
  },
  "userdoc": {
    "methods": {}
  }
}