{
  "contractName": "Blake3",
  "abi": [
    {
      "inputs": [],
      "payable": false,
      "stateMutability": "nonpayable",
      "type": "constructor"
    },
    {
      "constant": true,
      "inputs": [
        {
          "internalType": "bytes32",
          "name": "in_cv",
          "type": "bytes32"
        },
        {
          "internalType": "bytes32[2]",
          "name": "in_m",
          "type": "bytes32[2]"
        },
        {
          "internalType": "uint64",
          "name": "t",
          "type": "uint64"
        },
        {
          "internalType": "uint32",
          "name": "b",
          "type": "uint32"
        },
        {
          "internalType": "uint32",
          "name": "d",
          "type": "uint32"
        }
      ],
      "name": "compress",
      "outputs": [
        {
          "internalType": "bytes32[2]",
          "name": "output",
          "type": "bytes32[2]"
        }
      ],
      "payable": false,
      "stateMutability": "view",
      "type": "function"
    },
    {
      "constant": true,
      "inputs": [
        {
          "internalType": "bytes32",
          "name": "cv",
          "type": "bytes32"
        },
        {
          "internalType": "bytes32[2]",
          "name": "message",
          "type": "bytes32[2]"
        },
        {
          "internalType": "uint32",
          "name": "len_m",
          "type": "uint32"
        },
        {
          "internalType": "uint64",
          "name": "t",
          "type": "uint64"
        },
        {
          "internalType": "bool",
          "name": "is_root",
          "type": "bool"
        }
      ],
      "name": "process_chunk",
      "outputs": [
        {
          "internalType": "bytes32[2]",
          "name": "compression_result",
          "type": "bytes32[2]"
        }
      ],
      "payable": false,
      "stateMutability": "view",
      "type": "function"
    },
    {
      "constant": true,
      "inputs": [
        {
          "internalType": "bytes",
          "name": "input",
          "type": "bytes"
        }
      ],
      "name": "mybytestouint32",
      "outputs": [
        {
          "internalType": "uint32[16]",
          "name": "",
          "type": "uint32[16]"
        }
      ],
      "payable": false,
      "stateMutability": "pure",
      "type": "function"
    }
  ],
  "bytecode": "0x608060405234801561001057600080fd5b5061060e806100206000396000f3fe608060405234801561001057600080fd5b50600436106100415760003560e01c806368e65fdd146100465780637a82c28d1461012157806383bc71ff14610200575b600080fd5b6100e3600480360360c081101561005c57600080fd5b810190808035906020019092919080604001906002806020026040519081016040528092919082600260200280828437600081840152601f19601f8201169050808301925050505050509192919290803563ffffffff169060200190929190803567ffffffffffffffff1690602001909291908035151590602001909291905050506102f7565b6040518082600260200280838360005b8381101561010e5780820151818401526020810190506100f3565b5050505090500191505060405180910390f35b6101c2600480360360c081101561013757600080fd5b810190808035906020019092919080604001906002806020026040519081016040528092919082600260200280828437600081840152601f19601f8201169050808301925050505050509192919290803567ffffffffffffffff169060200190929190803563ffffffff169060200190929190803563ffffffff16906020019092919050505061039d565b6040518082600260200280838360005b838110156101ed5780820151818401526020810190506101d2565b5050505090500191505060405180910390f35b6102b96004803603602081101561021657600080fd5b810190808035906020019064010000000081111561023357600080fd5b82018360208201111561024557600080fd5b8035906020019184600183028401116401000000008311171561026757600080fd5b91908080601f016020809104026020016040519081016040528093929190818152602001838380828437600081840152601f19601f82011690508083019250505050505050919291929050505061050d565b6040518082601060200280838360005b838110156102e45780820151818401526020810190506102c9565b5050505090500191505060405180910390f35b6102ff610572565b600060068563ffffffff16901c90506000603f8616905060008060008060001b8660006002811061032c57fe5b6020020181815250506000801b8660016002811061034657fe5b6020020181815250508863ffffffff166000141561038b57861561036b576008811790505b61037f8b878a60008560026001171761039d565b95505050505050610394565b85955050505050505b95945050505050565b6103a5610572565b6103ad610594565b86816000600481106103bb57fe5b602002018181525050856000600281106103d157fe5b6020020151816001600481106103e357fe5b602002018181525050856001600281106103f957fe5b60200201518160026004811061040b57fe5b6020020181815250506000801b8160036004811061042557fe5b60200201818152505060c067ffffffffffffffff861667ffffffffffffffff16901b60001b8160036004811061045757fe5b6020020151178160036004811061046a57fe5b60200201818152505060a063ffffffff851663ffffffff16901b60001b8160036004811061049457fe5b602002015117816003600481106104a757fe5b602002018181525050608063ffffffff841663ffffffff16901b60001b816003600481106104d157fe5b602002015117816003600481106104e457fe5b60200201818152505060408260708360135afa61050057600080fd5b8191505095945050505050565b6105156105b6565b60008060006105226105b6565b600186019350601f810192505b855182101561056657835183536001840193506001830392506001820191506003821660001415610561576024830192505b61052f565b80945050505050919050565b6040518060400160405280600290602082028038833980820191505090505090565b6040518060800160405280600490602082028038833980820191505090505090565b60405180610200016040528060109060208202803883398082019150509050509056fea265627a7a723158202fa39224e8c32e638723da825d303abd3edd538dc18665597d13a187b72a43ca64736f6c63430005100032",
  "source": "pragma solidity >= 0.5.0;\n\ncontract Blake3 {\n\n  uint32 constant IV0 = 0x6a09e667;\n  uint32 constant IV1 = 0xbb67ae85;\n  uint32 constant IV2 = 0x3c6ef372;\n  uint32 constant IV3 = 0xa54ff53a;\n  uint32 constant IV4 = 0x510e527f;\n  uint32 constant IV5 = 0x9b05688c;\n  uint32 constant IV6 = 0x1f83d9ab;\n  uint32 constant IV7 = 0x5be0cd19;\n\n  uint32 constant         CHUNK_START = 0x01;\n  uint32 constant           CHUNK_END = 0x02;\n  uint32 constant              PARENT = 0x04;\n  uint32 constant                ROOT = 0x08;\n  uint32 constant          KEYED_HASH = 0x10;\n  uint32 constant  DERIVE_KEY_CONTEXT = 0x20;\n  uint32 constant DERIVE_KEY_MATERIAL = 0x40;\n\n  constructor() public {\n  }\n\n  // function tada() public returns (bytes32[2] memory c) {\n\n  //   uint256[3] memory input;\n  //   input[0] = 1;\n  //   input[1] = 2;\n  //   input[2] = 3;\n\n  //   assembly {\n\t// \t\tlet x := mload(0x40)    //Find empty storage location using \"free memory pointer\"\n\n\t// \t\t// mstore(xti, 2)            //Place size\n\t// \t\t// mstore(add(x,0x04), 123)  //Place first argument directly next to signature\n\t// \t\t// mstore(add(x,0x24), 456)  //Place second argument next to first, padded to 32 bytes\n\n\t// \t\tlet success := staticcall(      //This is the critical change (Pop the top stack value)\n\t// \t\t\t\t\t\t\tgas(),      //gas\n\t// \t\t\t\t\t\t\t0x13,       //Contract addr\n\t// \t\t\t\t\t\t\t// 0, //No value\n\t// \t\t\t\t\t\t\tinput,      //Inputs are stored at location x\n\t// \t\t\t\t\t\t\t96,        //Input number of bytes\n\t// \t\t\t\t\t\t\tx,         //Output address\n\t// \t\t\t\t\t\t\t96)        //Output number of bytes\n\n  //     mstore(c, mload(x))\n  //     mstore(add(c, 32), mload(add(x, 32)))\n  //     mstore(add(c, 64), mload(add(x, 64)))\n\n\t// \t\tmstore(0x40,add(x,0x44))    // Set storage pointer to empty space\n\t// \t}\n\t// }\n\n  function compress(\n    bytes32           in_cv,    // chaining value\n    bytes32[2] memory in_m,     // message\n    uint64            t,        // counter - t=t0t1 - t0 lower order, t1 higher order\n    uint32            b,        // number of bytes in the block\n    uint32            d         // flags\n  ) public view\n  returns (bytes32[2] memory output)\n  {\n    bytes32[4] memory input;\n\n    input[0] = in_cv;\n    input[1] = in_m[0];\n    input[2] = in_m[1];\n    input[3] = 0;\n    input[3] = input[3] | bytes32((uint256(t & 0xffffffffffffffff) << 192));\n    input[3] = input[3] | bytes32((uint256(b & 0xffffffff) << 160));\n    input[3] = input[3] | bytes32((uint256(d & 0xffffffff) << 128));\n\n    assembly {\n\n\t\t\t// mstore(xti, 2)            //Place size\n\t\t\t// mstore(add(x,0x04), 123)  //Place first argument directly next to signature\n\t\t\t// mstore(add(x,0x24), 456)  //Place second argument next to first, padded to 32 bytes\n\n\t\t\tif iszero(staticcall(      //This is the critical change (Pop the top stack value)\n\t\t\t\t\t\t\t\tgas(),      //gas\n\t\t\t\t\t\t\t\t0x13,       //Contract addr\n\t\t\t\t\t\t\t\t// 0, //No value\n\t\t\t\t\t\t\t\tinput,     //Inputs are stored at location x\n\t\t\t\t\t\t\t\t112,       //Input number of bytes\n\t\t\t\t\t\t\t\toutput,         //Output address\n\t\t\t\t\t\t\t\t64)        //Output number of bytes\n      ) {\n        revert(0, 0)\n      }\n\n\t\t}\n\n    return output;\n  }\n\n  function process_chunk(\n    bytes32             cv,       // chaining value\n    bytes32[2] memory   message,  // message\n    uint32              len_m,    // message size\n    uint64              t,        // chunk number\n    bool                is_root   // root or not\n  ) public view\n  returns (bytes32[2] memory compression_result)\n  {\n    uint32 num_full_blocks = len_m >> 6;    // div 64\n    uint32 last_block_sz = len_m & 0x3f;    // mod 64\n    uint32 last_block;\n    uint32 i;\n    uint32 d;\n\n    compression_result[0] = bytes32(0);\n    compression_result[1] = bytes32(0);\n\n    if (0 == len_m) {\n      if (is_root) {\n        d = d | ROOT;\n      }\n      return compress(cv, compression_result, t, 0, CHUNK_START | CHUNK_END | d);\n    }\n\n    // if (last_block_sz == uint32(0)) {\n    //   last_block = num_full_blocks - 1;\n    // }\n    // else {\n    //   last_block = num_full_blocks;\n    // }\n\n    // for (i = 0; i < num_full_blocks; i++) {\n\n    //   // prepare flags\n    //   d = 0;\n\n    //   if (i == 0) {\n    //     d = d | CHUNK_START;\n    //   }\n\n    //   if (i == last_block) {\n    //     d = d | CHUNK_END;\n    //     if (is_root) {\n    //       d = d | ROOT;\n    //     }\n    //   }\n\n    //   message = compress(cv, message, t, 64, d);\n\n    //   // truncate result\n    //   cv = message[0];\n    // }\n\n    // if (last_block_sz != 0) {\n    //   d = CHUNK_END;\n    //   if (num_full_blocks == 0) {\n    //     d = d | CHUNK_START;\n    //   }\n    //   if (is_root) {\n    //     d = d | ROOT;\n    //   }\n\n    //   if (last_block_sz != 0) {\n    //     compression_result = compress(cv, message, t, last_block_sz, d);\n    //   }\n    // }\n\n    return compression_result;\n  }\n\n  // function keyed_hash(\n  //   bytes memory input,\n  //   uint32[8] memory key\n  // ) public view\n  // returns (uint32[16] memory)\n  // {\n  //   uint256 i;\n  //   uint256 j;\n\n  //   bytes memory message = new bytes(1024);\n\n  //   uint32[16] memory m;\n  //   uint32[16] memory res;\n\n  //   uint256 stack_size;\n  //   uint256 num_chunks;\n\n  //   (stack_size, num_chunks) = stack_size_num_chunks(input.length);\n  //   uint32[] memory stack = new uint32[](stack_size * 8);\n\n  //   uint32 stack_index = 0;\n  //   uint64 chunk_nb = 0;\n  //   uint64 aux_chunk_nb;\n  //   uint32 max = 0;\n\n\n  //   for (i = 0; i < input.length; i += 1024) {\n\n  //     for(j = 0; j < 1024; j++) {\n  //       message[j] = bytes1(input[j+i]);\n  //     }\n  //     res = process_chunk(key, message, chunk_nb, false);\n\n  //     for(j = 0; j < 8; j++) {\n  //       stack[stack_index + j] = res[j];\n  //     }\n  //     stack_index += 8;\n\n  //     chunk_nb += 1;\n  //     aux_chunk_nb = chunk_nb;\n  //     max = 0;\n  //     while ((aux_chunk_nb > 0) && (aux_chunk_nb & 1 == 0)) {\n  //       max += 1;\n  //       if (max == 100) {\n  //         res[0] = uint32(aux_chunk_nb);\n  //         return res;\n  //       }\n  //       aux_chunk_nb = aux_chunk_nb / 2;\n\n  //       stack_index -= 16;\n  //       for (j = 0; j < 16; j++) {\n  //         m[j] = stack[stack_index + j];\n  //       }\n\n  //       if ( (chunk_nb == num_chunks) && (stack_index == 0) ) {\n  //         return compress(key, m, 0, 64, PARENT | ROOT);\n  //       }\n\n  //       res = compress(key, m, 0, 64, PARENT);\n  //       for(j = 0; j < 8; j++) {\n  //         stack[stack_index + j] = res[j];\n  //       }\n  //       stack_index += 8;\n\n  //     }\n\n  //   }\n\n  //   // for(i=0;i<1024; i++) {\n  //   //   message[i] = input[i];\n  //   // }\n  //   // res1 = process_chunk(\n  //   //   key,\n  //   //   message,\n  //   //   0,\n  //   //   false\n  //   // );\n\n  //   // for(i=1024;i<2048; i++) {\n  //   //   message[i-1024] = input[i];\n  //   // }\n  //   // res2 = process_chunk(\n  //   //   key,\n  //   //   message,\n  //   //   1,\n  //   //   false\n  //   // );\n\n  //   // for (i=0; i<8; i++) {\n  //   //   m[i] = res1[i];\n  //   // }\n  //   // for (i=8; i<16; i++) {\n  //   //   m[i] = res2[i-8];\n  //   // }\n    \n  //   // res3 = compress(\n  //   //   key,\n  //   //   m,\n  //   //   0,\n  //   //   64,\n  //   //   PARENT | ROOT\n  //   // );\n\n  //   // return res3;\n    \n  //   // for(j = 0; j < 16; j++) {\n  //   //   res[j] = stack[j];\n  //   // }\n  //   // return res;\n  //   return res;\n  // }\n\n  // function hash(\n  //   bytes memory input\n  // ) public view\n  // returns (uint32[16] memory)\n  // {\n  //   uint32[8] memory key = [IV0, IV1, IV2, IV3, IV4, IV5, IV6, IV7];\n  //   return keyed_hash(input, key);\n  // }\n\n  function stack_size_num_chunks(uint256 input_size)\n    private pure\n    returns (uint256, uint256) {\n      uint256 full_chunks = input_size >> 10;\n      uint256 last_chunk_sz = input_size & 0x7ff;\n      uint256 num_chunks = full_chunks;\n      if (last_chunk_sz != 0) {\n        num_chunks += 1;\n      }\n\n      uint256 stack_size = 1;\n      uint256 i;\n      for (i = 1; i < num_chunks; i <<= 1) {\n        stack_size += 1;\n      }\n\n      return (stack_size, num_chunks);\n  }\n\n  function mybytestouint32(bytes memory input)\n    public pure\n  returns (uint32[16] memory) {\n    // takes in at most 64 bytes\n    // returns an array of unsigned integers\n    uint data_ptr;\n    uint state_ptr;\n    uint i;\n    uint32[16] memory ret;\n\n    assembly {\n      data_ptr := add(input, 1)\n      state_ptr := add(ret, 31)\n    }\n\n    while (i < input.length) {\n      \n      assembly {\n        mstore8(state_ptr, mload(data_ptr))\n        data_ptr := add(data_ptr, 1)\n        state_ptr := sub(state_ptr, 1)\n\n        i := add(i, 1)\n      }\n\n      if (0 == (i & 0x3) ) {\n        state_ptr += 36;\n      }\n      \n    }\n\n    return ret;\n  }\n}\n",
  "sourcePath": "/Users/ionutcosmin/Documents/Dizertatie/blockchain/contracts/Blake3.sol",
  "compiler": {
    "name": "solc",
    "version": "0.5.16+commit.9c3226ce.Emscripten.clang"
  },
  "schemaVersion": "3.1.0",
  "updatedAt": "2021-01-10T23:38:10.930Z",
  "networkType": "ethereum",
  "devdoc": {
    "methods": {}
  },
  "userdoc": {
    "methods": {}
  }
}