{
  "contractName": "Blake3",
  "abi": [
    {
      "inputs": [],
      "payable": false,
      "stateMutability": "nonpayable",
      "type": "constructor"
    },
    {
      "constant": true,
      "inputs": [
        {
          "internalType": "uint32",
          "name": "a",
          "type": "uint32"
        },
        {
          "internalType": "uint32",
          "name": "b",
          "type": "uint32"
        },
        {
          "internalType": "uint32",
          "name": "c",
          "type": "uint32"
        },
        {
          "internalType": "uint32",
          "name": "d",
          "type": "uint32"
        },
        {
          "internalType": "uint32",
          "name": "m2i0",
          "type": "uint32"
        },
        {
          "internalType": "uint32",
          "name": "m2i1",
          "type": "uint32"
        }
      ],
      "name": "G",
      "outputs": [
        {
          "internalType": "uint32",
          "name": "",
          "type": "uint32"
        },
        {
          "internalType": "uint32",
          "name": "",
          "type": "uint32"
        },
        {
          "internalType": "uint32",
          "name": "",
          "type": "uint32"
        },
        {
          "internalType": "uint32",
          "name": "",
          "type": "uint32"
        }
      ],
      "payable": false,
      "stateMutability": "pure",
      "type": "function"
    },
    {
      "constant": true,
      "inputs": [
        {
          "internalType": "uint32[8]",
          "name": "h",
          "type": "uint32[8]"
        },
        {
          "internalType": "uint32[16]",
          "name": "m",
          "type": "uint32[16]"
        },
        {
          "internalType": "uint64",
          "name": "t",
          "type": "uint64"
        },
        {
          "internalType": "uint32",
          "name": "b",
          "type": "uint32"
        },
        {
          "internalType": "uint32",
          "name": "d",
          "type": "uint32"
        }
      ],
      "name": "compress",
      "outputs": [
        {
          "internalType": "uint32[16]",
          "name": "",
          "type": "uint32[16]"
        }
      ],
      "payable": false,
      "stateMutability": "pure",
      "type": "function"
    },
    {
      "constant": true,
      "inputs": [],
      "name": "hash",
      "outputs": [
        {
          "internalType": "uint32",
          "name": "",
          "type": "uint32"
        }
      ],
      "payable": false,
      "stateMutability": "pure",
      "type": "function"
    }
  ],
  "bytecode": "0x608060405234801561001057600080fd5b50613e20806100206000396000f3fe608060405234801561001057600080fd5b50600436106100415760003560e01c806309bd5a601461004657806312c9f419146100705780632a2e0f7a1461014d575b600080fd5b61004e610266565b604051808263ffffffff1663ffffffff16815260200191505060405180910390f35b6100f2600480360360c081101561008657600080fd5b81019080803563ffffffff169060200190929190803563ffffffff169060200190929190803563ffffffff169060200190929190803563ffffffff169060200190929190803563ffffffff169060200190929190803563ffffffff169060200190929190505050610272565b604051808563ffffffff1663ffffffff1681526020018463ffffffff1663ffffffff1681526020018363ffffffff1663ffffffff1681526020018263ffffffff1663ffffffff16815260200194505050505060405180910390f35b610228600480360361036081101561016457600080fd5b810190808061010001906008806020026040519081016040528092919082600860200280828437600081840152601f19601f82011690508083019250505050505091929192908061020001906010806020026040519081016040528092919082601060200280828437600081840152601f19601f8201169050808301925050505050509192919290803567ffffffffffffffff169060200190929190803563ffffffff169060200190929190803563ffffffff169060200190929190505050610335565b6040518082601060200280838360005b83811015610253578082015181840152602081019050610238565b5050505090500191505060405180910390f35b6000636a09e667905090565b60008060008060008a905060008a905060008a905060008a905089838501019350601084821863ffffffff16901b601085831863ffffffff16901c0190508082019150601482841863ffffffff16901b600c83851863ffffffff16901c01925088838501019350601884821863ffffffff16901b600885831863ffffffff16901c0190508082019150601982841863ffffffff16901b600783851863ffffffff16901c019250838383839750975097509750505050509650965096509692505050565b61033d613dc8565b610345613dc8565b61039b8760006008811061035557fe5b60200201518860046008811061036757fe5b6020020151636a09e667888a60006010811061037f57fe5b60200201518b60016010811061039157fe5b6020020151610272565b846000601081106103a857fe5b60200201856004601081106103b957fe5b60200201866008601081106103ca57fe5b6020020187600c601081106103db57fe5b602002018463ffffffff1663ffffffff168152508463ffffffff1663ffffffff168152508463ffffffff1663ffffffff168152508463ffffffff1663ffffffff16815250505050506104878760016008811061043357fe5b60200201518860056008811061044557fe5b602002015163bb67ae8560208967ffffffffffffffff16901c8a60026010811061046b57fe5b60200201518b60036010811061047d57fe5b6020020151610272565b8460016010811061049457fe5b60200201856005601081106104a557fe5b60200201866009601081106104b657fe5b6020020187600d601081106104c757fe5b602002018463ffffffff1663ffffffff168152508463ffffffff1663ffffffff168152508463ffffffff1663ffffffff168152508463ffffffff1663ffffffff16815250505050506105658760026008811061051f57fe5b60200201518860066008811061053157fe5b6020020151633c6ef372878a60046010811061054957fe5b60200201518b60056010811061055b57fe5b6020020151610272565b8460026010811061057257fe5b602002018560066010811061058357fe5b6020020186600a6010811061059457fe5b6020020187600e601081106105a557fe5b602002018463ffffffff1663ffffffff168152508463ffffffff1663ffffffff168152508463ffffffff1663ffffffff168152508463ffffffff1663ffffffff1681525050505050610643876003600881106105fd57fe5b60200201518860076008811061060f57fe5b602002015163a54ff53a868a60066010811061062757fe5b60200201518b60076010811061063957fe5b6020020151610272565b8460036010811061065057fe5b602002018560076010811061066157fe5b6020020186600b6010811061067257fe5b6020020187600f6010811061068357fe5b602002018463ffffffff1663ffffffff168152508463ffffffff1663ffffffff168152508463ffffffff1663ffffffff168152508463ffffffff1663ffffffff168152505050505061073f816000601081106106db57fe5b6020020151826005601081106106ed57fe5b602002015183600a601081106106ff57fe5b602002015184600f6010811061071157fe5b60200201518a60086010811061072357fe5b60200201518b60096010811061073557fe5b6020020151610272565b8460006010811061074c57fe5b602002018560056010811061075d57fe5b6020020186600a6010811061076e57fe5b6020020187600f6010811061077f57fe5b602002018463ffffffff1663ffffffff168152508463ffffffff1663ffffffff168152508463ffffffff1663ffffffff168152508463ffffffff1663ffffffff168152505050505061083b816001601081106107d757fe5b6020020151826006601081106107e957fe5b602002015183600b601081106107fb57fe5b602002015184600c6010811061080d57fe5b60200201518a600a6010811061081f57fe5b60200201518b600b6010811061083157fe5b6020020151610272565b8460016010811061084857fe5b602002018560066010811061085957fe5b6020020186600b6010811061086a57fe5b6020020187600c6010811061087b57fe5b602002018463ffffffff1663ffffffff168152508463ffffffff1663ffffffff168152508463ffffffff1663ffffffff168152508463ffffffff1663ffffffff1681525050505050610937816002601081106108d357fe5b6020020151826007601081106108e557fe5b6020020151836008601081106108f757fe5b602002015184600d6010811061090957fe5b60200201518a600c6010811061091b57fe5b60200201518b600d6010811061092d57fe5b6020020151610272565b8460026010811061094457fe5b602002018560076010811061095557fe5b602002018660086010811061096657fe5b6020020187600d6010811061097757fe5b602002018463ffffffff1663ffffffff168152508463ffffffff1663ffffffff168152508463ffffffff1663ffffffff168152508463ffffffff1663ffffffff1681525050505050610a33816003601081106109cf57fe5b6020020151826004601081106109e157fe5b6020020151836009601081106109f357fe5b602002015184600e60108110610a0557fe5b60200201518a600e60108110610a1757fe5b60200201518b600f60108110610a2957fe5b6020020151610272565b84600360108110610a4057fe5b6020020185600460108110610a5157fe5b6020020186600960108110610a6257fe5b6020020187600e60108110610a7357fe5b602002018463ffffffff1663ffffffff168152508463ffffffff1663ffffffff168152508463ffffffff1663ffffffff168152508463ffffffff1663ffffffff1681525050505050610b2f81600060108110610acb57fe5b602002015182600460108110610add57fe5b602002015183600860108110610aef57fe5b602002015184600c60108110610b0157fe5b60200201518a600260108110610b1357fe5b60200201518b600660108110610b2557fe5b6020020151610272565b84600060108110610b3c57fe5b6020020185600460108110610b4d57fe5b6020020186600860108110610b5e57fe5b6020020187600c60108110610b6f57fe5b602002018463ffffffff1663ffffffff168152508463ffffffff1663ffffffff168152508463ffffffff1663ffffffff168152508463ffffffff1663ffffffff1681525050505050610c2b81600160108110610bc757fe5b602002015182600560108110610bd957fe5b602002015183600960108110610beb57fe5b602002015184600d60108110610bfd57fe5b60200201518a600360108110610c0f57fe5b60200201518b600a60108110610c2157fe5b6020020151610272565b84600160108110610c3857fe5b6020020185600560108110610c4957fe5b6020020186600960108110610c5a57fe5b6020020187600d60108110610c6b57fe5b602002018463ffffffff1663ffffffff168152508463ffffffff1663ffffffff168152508463ffffffff1663ffffffff168152508463ffffffff1663ffffffff1681525050505050610d2781600260108110610cc357fe5b602002015182600660108110610cd557fe5b602002015183600a60108110610ce757fe5b602002015184600e60108110610cf957fe5b60200201518a600760108110610d0b57fe5b60200201518b600060108110610d1d57fe5b6020020151610272565b84600260108110610d3457fe5b6020020185600660108110610d4557fe5b6020020186600a60108110610d5657fe5b6020020187600e60108110610d6757fe5b602002018463ffffffff1663ffffffff168152508463ffffffff1663ffffffff168152508463ffffffff1663ffffffff168152508463ffffffff1663ffffffff1681525050505050610e2381600360108110610dbf57fe5b602002015182600760108110610dd157fe5b602002015183600b60108110610de357fe5b602002015184600f60108110610df557fe5b60200201518a600460108110610e0757fe5b60200201518b600d60108110610e1957fe5b6020020151610272565b84600360108110610e3057fe5b6020020185600760108110610e4157fe5b6020020186600b60108110610e5257fe5b6020020187600f60108110610e6357fe5b602002018463ffffffff1663ffffffff168152508463ffffffff1663ffffffff168152508463ffffffff1663ffffffff168152508463ffffffff1663ffffffff1681525050505050610f1f81600060108110610ebb57fe5b602002015182600560108110610ecd57fe5b602002015183600a60108110610edf57fe5b602002015184600f60108110610ef157fe5b60200201518a600160108110610f0357fe5b60200201518b600b60108110610f1557fe5b6020020151610272565b84600060108110610f2c57fe5b6020020185600560108110610f3d57fe5b6020020186600a60108110610f4e57fe5b6020020187600f60108110610f5f57fe5b602002018463ffffffff1663ffffffff168152508463ffffffff1663ffffffff168152508463ffffffff1663ffffffff168152508463ffffffff1663ffffffff168152505050505061101b81600160108110610fb757fe5b602002015182600660108110610fc957fe5b602002015183600b60108110610fdb57fe5b602002015184600c60108110610fed57fe5b60200201518a600c60108110610fff57fe5b60200201518b60056010811061101157fe5b6020020151610272565b8460016010811061102857fe5b602002018560066010811061103957fe5b6020020186600b6010811061104a57fe5b6020020187600c6010811061105b57fe5b602002018463ffffffff1663ffffffff168152508463ffffffff1663ffffffff168152508463ffffffff1663ffffffff168152508463ffffffff1663ffffffff1681525050505050611117816002601081106110b357fe5b6020020151826007601081106110c557fe5b6020020151836008601081106110d757fe5b602002015184600d601081106110e957fe5b60200201518a6009601081106110fb57fe5b60200201518b600e6010811061110d57fe5b6020020151610272565b8460026010811061112457fe5b602002018560076010811061113557fe5b602002018660086010811061114657fe5b6020020187600d6010811061115757fe5b602002018463ffffffff1663ffffffff168152508463ffffffff1663ffffffff168152508463ffffffff1663ffffffff168152508463ffffffff1663ffffffff1681525050505050611213816003601081106111af57fe5b6020020151826004601081106111c157fe5b6020020151836009601081106111d357fe5b602002015184600e601081106111e557fe5b60200201518a600f601081106111f757fe5b60200201518b60086010811061120957fe5b6020020151610272565b8460036010811061122057fe5b602002018560046010811061123157fe5b602002018660096010811061124257fe5b6020020187600e6010811061125357fe5b602002018463ffffffff1663ffffffff168152508463ffffffff1663ffffffff168152508463ffffffff1663ffffffff168152508463ffffffff1663ffffffff168152505050505061130f816000601081106112ab57fe5b6020020151826004601081106112bd57fe5b6020020151836008601081106112cf57fe5b602002015184600c601081106112e157fe5b60200201518a6003601081106112f357fe5b60200201518b60046010811061130557fe5b6020020151610272565b8460006010811061131c57fe5b602002018560046010811061132d57fe5b602002018660086010811061133e57fe5b6020020187600c6010811061134f57fe5b602002018463ffffffff1663ffffffff168152508463ffffffff1663ffffffff168152508463ffffffff1663ffffffff168152508463ffffffff1663ffffffff168152505050505061140b816001601081106113a757fe5b6020020151826005601081106113b957fe5b6020020151836009601081106113cb57fe5b602002015184600d601081106113dd57fe5b60200201518a600a601081106113ef57fe5b60200201518b600c6010811061140157fe5b6020020151610272565b8460016010811061141857fe5b602002018560056010811061142957fe5b602002018660096010811061143a57fe5b6020020187600d6010811061144b57fe5b602002018463ffffffff1663ffffffff168152508463ffffffff1663ffffffff168152508463ffffffff1663ffffffff168152508463ffffffff1663ffffffff1681525050505050611507816002601081106114a357fe5b6020020151826006601081106114b557fe5b602002015183600a601081106114c757fe5b602002015184600e601081106114d957fe5b60200201518a600d601081106114eb57fe5b60200201518b6002601081106114fd57fe5b6020020151610272565b8460026010811061151457fe5b602002018560066010811061152557fe5b6020020186600a6010811061153657fe5b6020020187600e6010811061154757fe5b602002018463ffffffff1663ffffffff168152508463ffffffff1663ffffffff168152508463ffffffff1663ffffffff168152508463ffffffff1663ffffffff16815250505050506116038160036010811061159f57fe5b6020020151826007601081106115b157fe5b602002015183600b601081106115c357fe5b602002015184600f601081106115d557fe5b60200201518a6007601081106115e757fe5b60200201518b600e601081106115f957fe5b6020020151610272565b8460036010811061161057fe5b602002018560076010811061162157fe5b6020020186600b6010811061163257fe5b6020020187600f6010811061164357fe5b602002018463ffffffff1663ffffffff168152508463ffffffff1663ffffffff168152508463ffffffff1663ffffffff168152508463ffffffff1663ffffffff16815250505050506116ff8160006010811061169b57fe5b6020020151826005601081106116ad57fe5b602002015183600a601081106116bf57fe5b602002015184600f601081106116d157fe5b60200201518a6006601081106116e357fe5b60200201518b6005601081106116f557fe5b6020020151610272565b8460006010811061170c57fe5b602002018560056010811061171d57fe5b6020020186600a6010811061172e57fe5b6020020187600f6010811061173f57fe5b602002018463ffffffff1663ffffffff168152508463ffffffff1663ffffffff168152508463ffffffff1663ffffffff168152508463ffffffff1663ffffffff16815250505050506117fb8160016010811061179757fe5b6020020151826006601081106117a957fe5b602002015183600b601081106117bb57fe5b602002015184600c601081106117cd57fe5b60200201518a6009601081106117df57fe5b60200201518b6000601081106117f157fe5b6020020151610272565b8460016010811061180857fe5b602002018560066010811061181957fe5b6020020186600b6010811061182a57fe5b6020020187600c6010811061183b57fe5b602002018463ffffffff1663ffffffff168152508463ffffffff1663ffffffff168152508463ffffffff1663ffffffff168152508463ffffffff1663ffffffff16815250505050506118f78160026010811061189357fe5b6020020151826007601081106118a557fe5b6020020151836008601081106118b757fe5b602002015184600d601081106118c957fe5b60200201518a600b601081106118db57fe5b60200201518b600f601081106118ed57fe5b6020020151610272565b8460026010811061190457fe5b602002018560076010811061191557fe5b602002018660086010811061192657fe5b6020020187600d6010811061193757fe5b602002018463ffffffff1663ffffffff168152508463ffffffff1663ffffffff168152508463ffffffff1663ffffffff168152508463ffffffff1663ffffffff16815250505050506119f38160036010811061198f57fe5b6020020151826004601081106119a157fe5b6020020151836009601081106119b357fe5b602002015184600e601081106119c557fe5b60200201518a6008601081106119d757fe5b60200201518b6001601081106119e957fe5b6020020151610272565b84600360108110611a0057fe5b6020020185600460108110611a1157fe5b6020020186600960108110611a2257fe5b6020020187600e60108110611a3357fe5b602002018463ffffffff1663ffffffff168152508463ffffffff1663ffffffff168152508463ffffffff1663ffffffff168152508463ffffffff1663ffffffff1681525050505050611aef81600060108110611a8b57fe5b602002015182600460108110611a9d57fe5b602002015183600860108110611aaf57fe5b602002015184600c60108110611ac157fe5b60200201518a600a60108110611ad357fe5b60200201518b600760108110611ae557fe5b6020020151610272565b84600060108110611afc57fe5b6020020185600460108110611b0d57fe5b6020020186600860108110611b1e57fe5b6020020187600c60108110611b2f57fe5b602002018463ffffffff1663ffffffff168152508463ffffffff1663ffffffff168152508463ffffffff1663ffffffff168152508463ffffffff1663ffffffff1681525050505050611beb81600160108110611b8757fe5b602002015182600560108110611b9957fe5b602002015183600960108110611bab57fe5b602002015184600d60108110611bbd57fe5b60200201518a600c60108110611bcf57fe5b60200201518b600960108110611be157fe5b6020020151610272565b84600160108110611bf857fe5b6020020185600560108110611c0957fe5b6020020186600960108110611c1a57fe5b6020020187600d60108110611c2b57fe5b602002018463ffffffff1663ffffffff168152508463ffffffff1663ffffffff168152508463ffffffff1663ffffffff168152508463ffffffff1663ffffffff1681525050505050611ce781600260108110611c8357fe5b602002015182600660108110611c9557fe5b602002015183600a60108110611ca757fe5b602002015184600e60108110611cb957fe5b60200201518a600e60108110611ccb57fe5b60200201518b600360108110611cdd57fe5b6020020151610272565b84600260108110611cf457fe5b6020020185600660108110611d0557fe5b6020020186600a60108110611d1657fe5b6020020187600e60108110611d2757fe5b602002018463ffffffff1663ffffffff168152508463ffffffff1663ffffffff168152508463ffffffff1663ffffffff168152508463ffffffff1663ffffffff1681525050505050611de381600360108110611d7f57fe5b602002015182600760108110611d9157fe5b602002015183600b60108110611da357fe5b602002015184600f60108110611db557fe5b60200201518a600d60108110611dc757fe5b60200201518b600f60108110611dd957fe5b6020020151610272565b84600360108110611df057fe5b6020020185600760108110611e0157fe5b6020020186600b60108110611e1257fe5b6020020187600f60108110611e2357fe5b602002018463ffffffff1663ffffffff168152508463ffffffff1663ffffffff168152508463ffffffff1663ffffffff168152508463ffffffff1663ffffffff1681525050505050611edf81600060108110611e7b57fe5b602002015182600560108110611e8d57fe5b602002015183600a60108110611e9f57fe5b602002015184600f60108110611eb157fe5b60200201518a600460108110611ec357fe5b60200201518b600060108110611ed557fe5b6020020151610272565b84600060108110611eec57fe5b6020020185600560108110611efd57fe5b6020020186600a60108110611f0e57fe5b6020020187600f60108110611f1f57fe5b602002018463ffffffff1663ffffffff168152508463ffffffff1663ffffffff168152508463ffffffff1663ffffffff168152508463ffffffff1663ffffffff1681525050505050611fdb81600160108110611f7757fe5b602002015182600660108110611f8957fe5b602002015183600b60108110611f9b57fe5b602002015184600c60108110611fad57fe5b60200201518a600b60108110611fbf57fe5b60200201518b600260108110611fd157fe5b6020020151610272565b84600160108110611fe857fe5b6020020185600660108110611ff957fe5b6020020186600b6010811061200a57fe5b6020020187600c6010811061201b57fe5b602002018463ffffffff1663ffffffff168152508463ffffffff1663ffffffff168152508463ffffffff1663ffffffff168152508463ffffffff1663ffffffff16815250505050506120d78160026010811061207357fe5b60200201518260076010811061208557fe5b60200201518360086010811061209757fe5b602002015184600d601081106120a957fe5b60200201518a6005601081106120bb57fe5b60200201518b6008601081106120cd57fe5b6020020151610272565b846002601081106120e457fe5b60200201856007601081106120f557fe5b602002018660086010811061210657fe5b6020020187600d6010811061211757fe5b602002018463ffffffff1663ffffffff168152508463ffffffff1663ffffffff168152508463ffffffff1663ffffffff168152508463ffffffff1663ffffffff16815250505050506121d38160036010811061216f57fe5b60200201518260046010811061218157fe5b60200201518360096010811061219357fe5b602002015184600e601081106121a557fe5b60200201518a6001601081106121b757fe5b60200201518b6006601081106121c957fe5b6020020151610272565b846003601081106121e057fe5b60200201856004601081106121f157fe5b602002018660096010811061220257fe5b6020020187600e6010811061221357fe5b602002018463ffffffff1663ffffffff168152508463ffffffff1663ffffffff168152508463ffffffff1663ffffffff168152508463ffffffff1663ffffffff16815250505050506122cf8160006010811061226b57fe5b60200201518260046010811061227d57fe5b60200201518360086010811061228f57fe5b602002015184600c601081106122a157fe5b60200201518a600c601081106122b357fe5b60200201518b600d601081106122c557fe5b6020020151610272565b846000601081106122dc57fe5b60200201856004601081106122ed57fe5b60200201866008601081106122fe57fe5b6020020187600c6010811061230f57fe5b602002018463ffffffff1663ffffffff168152508463ffffffff1663ffffffff168152508463ffffffff1663ffffffff168152508463ffffffff1663ffffffff16815250505050506123cb8160016010811061236757fe5b60200201518260056010811061237957fe5b60200201518360096010811061238b57fe5b602002015184600d6010811061239d57fe5b60200201518a6009601081106123af57fe5b60200201518b600b601081106123c157fe5b6020020151610272565b846001601081106123d857fe5b60200201856005601081106123e957fe5b60200201866009601081106123fa57fe5b6020020187600d6010811061240b57fe5b602002018463ffffffff1663ffffffff168152508463ffffffff1663ffffffff168152508463ffffffff1663ffffffff168152508463ffffffff1663ffffffff16815250505050506124c78160026010811061246357fe5b60200201518260066010811061247557fe5b602002015183600a6010811061248757fe5b602002015184600e6010811061249957fe5b60200201518a600f601081106124ab57fe5b60200201518b600a601081106124bd57fe5b6020020151610272565b846002601081106124d457fe5b60200201856006601081106124e557fe5b6020020186600a601081106124f657fe5b6020020187600e6010811061250757fe5b602002018463ffffffff1663ffffffff168152508463ffffffff1663ffffffff168152508463ffffffff1663ffffffff168152508463ffffffff1663ffffffff16815250505050506125c38160036010811061255f57fe5b60200201518260076010811061257157fe5b602002015183600b6010811061258357fe5b602002015184600f6010811061259557fe5b60200201518a600e601081106125a757fe5b60200201518b6008601081106125b957fe5b6020020151610272565b846003601081106125d057fe5b60200201856007601081106125e157fe5b6020020186600b601081106125f257fe5b6020020187600f6010811061260357fe5b602002018463ffffffff1663ffffffff168152508463ffffffff1663ffffffff168152508463ffffffff1663ffffffff168152508463ffffffff1663ffffffff16815250505050506126bf8160006010811061265b57fe5b60200201518260056010811061266d57fe5b602002015183600a6010811061267f57fe5b602002015184600f6010811061269157fe5b60200201518a6007601081106126a357fe5b60200201518b6002601081106126b557fe5b6020020151610272565b846000601081106126cc57fe5b60200201856005601081106126dd57fe5b6020020186600a601081106126ee57fe5b6020020187600f601081106126ff57fe5b602002018463ffffffff1663ffffffff168152508463ffffffff1663ffffffff168152508463ffffffff1663ffffffff168152508463ffffffff1663ffffffff16815250505050506127bb8160016010811061275757fe5b60200201518260066010811061276957fe5b602002015183600b6010811061277b57fe5b602002015184600c6010811061278d57fe5b60200201518a60056010811061279f57fe5b60200201518b6003601081106127b157fe5b6020020151610272565b846001601081106127c857fe5b60200201856006601081106127d957fe5b6020020186600b601081106127ea57fe5b6020020187600c601081106127fb57fe5b602002018463ffffffff1663ffffffff168152508463ffffffff1663ffffffff168152508463ffffffff1663ffffffff168152508463ffffffff1663ffffffff16815250505050506128b78160026010811061285357fe5b60200201518260076010811061286557fe5b60200201518360086010811061287757fe5b602002015184600d6010811061288957fe5b60200201518a60006010811061289b57fe5b60200201518b6001601081106128ad57fe5b6020020151610272565b846002601081106128c457fe5b60200201856007601081106128d557fe5b60200201866008601081106128e657fe5b6020020187600d601081106128f757fe5b602002018463ffffffff1663ffffffff168152508463ffffffff1663ffffffff168152508463ffffffff1663ffffffff168152508463ffffffff1663ffffffff16815250505050506129b38160036010811061294f57fe5b60200201518260046010811061296157fe5b60200201518360096010811061297357fe5b602002015184600e6010811061298557fe5b60200201518a60066010811061299757fe5b60200201518b6004601081106129a957fe5b6020020151610272565b846003601081106129c057fe5b60200201856004601081106129d157fe5b60200201866009601081106129e257fe5b6020020187600e601081106129f357fe5b602002018463ffffffff1663ffffffff168152508463ffffffff1663ffffffff168152508463ffffffff1663ffffffff168152508463ffffffff1663ffffffff1681525050505050612aaf81600060108110612a4b57fe5b602002015182600460108110612a5d57fe5b602002015183600860108110612a6f57fe5b602002015184600c60108110612a8157fe5b60200201518a600960108110612a9357fe5b60200201518b600e60108110612aa557fe5b6020020151610272565b84600060108110612abc57fe5b6020020185600460108110612acd57fe5b6020020186600860108110612ade57fe5b6020020187600c60108110612aef57fe5b602002018463ffffffff1663ffffffff168152508463ffffffff1663ffffffff168152508463ffffffff1663ffffffff168152508463ffffffff1663ffffffff1681525050505050612bab81600160108110612b4757fe5b602002015182600560108110612b5957fe5b602002015183600960108110612b6b57fe5b602002015184600d60108110612b7d57fe5b60200201518a600b60108110612b8f57fe5b60200201518b600560108110612ba157fe5b6020020151610272565b84600160108110612bb857fe5b6020020185600560108110612bc957fe5b6020020186600960108110612bda57fe5b6020020187600d60108110612beb57fe5b602002018463ffffffff1663ffffffff168152508463ffffffff1663ffffffff168152508463ffffffff1663ffffffff168152508463ffffffff1663ffffffff1681525050505050612ca781600260108110612c4357fe5b602002015182600660108110612c5557fe5b602002015183600a60108110612c6757fe5b602002015184600e60108110612c7957fe5b60200201518a600860108110612c8b57fe5b60200201518b600c60108110612c9d57fe5b6020020151610272565b84600260108110612cb457fe5b6020020185600660108110612cc557fe5b6020020186600a60108110612cd657fe5b6020020187600e60108110612ce757fe5b602002018463ffffffff1663ffffffff168152508463ffffffff1663ffffffff168152508463ffffffff1663ffffffff168152508463ffffffff1663ffffffff1681525050505050612da381600360108110612d3f57fe5b602002015182600760108110612d5157fe5b602002015183600b60108110612d6357fe5b602002015184600f60108110612d7557fe5b60200201518a600f60108110612d8757fe5b60200201518b600160108110612d9957fe5b6020020151610272565b84600360108110612db057fe5b6020020185600760108110612dc157fe5b6020020186600b60108110612dd257fe5b6020020187600f60108110612de357fe5b602002018463ffffffff1663ffffffff168152508463ffffffff1663ffffffff168152508463ffffffff1663ffffffff168152508463ffffffff1663ffffffff1681525050505050612e9f81600060108110612e3b57fe5b602002015182600560108110612e4d57fe5b602002015183600a60108110612e5f57fe5b602002015184600f60108110612e7157fe5b60200201518a600d60108110612e8357fe5b60200201518b600360108110612e9557fe5b6020020151610272565b84600060108110612eac57fe5b6020020185600560108110612ebd57fe5b6020020186600a60108110612ece57fe5b6020020187600f60108110612edf57fe5b602002018463ffffffff1663ffffffff168152508463ffffffff1663ffffffff168152508463ffffffff1663ffffffff168152508463ffffffff1663ffffffff1681525050505050612f9b81600160108110612f3757fe5b602002015182600660108110612f4957fe5b602002015183600b60108110612f5b57fe5b602002015184600c60108110612f6d57fe5b60200201518a600060108110612f7f57fe5b60200201518b600a60108110612f9157fe5b6020020151610272565b84600160108110612fa857fe5b6020020185600660108110612fb957fe5b6020020186600b60108110612fca57fe5b6020020187600c60108110612fdb57fe5b602002018463ffffffff1663ffffffff168152508463ffffffff1663ffffffff168152508463ffffffff1663ffffffff168152508463ffffffff1663ffffffff16815250505050506130978160026010811061303357fe5b60200201518260076010811061304557fe5b60200201518360086010811061305757fe5b602002015184600d6010811061306957fe5b60200201518a60026010811061307b57fe5b60200201518b60066010811061308d57fe5b6020020151610272565b846002601081106130a457fe5b60200201856007601081106130b557fe5b60200201866008601081106130c657fe5b6020020187600d601081106130d757fe5b602002018463ffffffff1663ffffffff168152508463ffffffff1663ffffffff168152508463ffffffff1663ffffffff168152508463ffffffff1663ffffffff16815250505050506131938160036010811061312f57fe5b60200201518260046010811061314157fe5b60200201518360096010811061315357fe5b602002015184600e6010811061316557fe5b60200201518a60046010811061317757fe5b60200201518b60076010811061318957fe5b6020020151610272565b846003601081106131a057fe5b60200201856004601081106131b157fe5b60200201866009601081106131c257fe5b6020020187600e601081106131d357fe5b602002018463ffffffff1663ffffffff168152508463ffffffff1663ffffffff168152508463ffffffff1663ffffffff168152508463ffffffff1663ffffffff168152505050505061328f8160006010811061322b57fe5b60200201518260046010811061323d57fe5b60200201518360086010811061324f57fe5b602002015184600c6010811061326157fe5b60200201518a600b6010811061327357fe5b60200201518b600f6010811061328557fe5b6020020151610272565b8460006010811061329c57fe5b60200201856004601081106132ad57fe5b60200201866008601081106132be57fe5b6020020187600c601081106132cf57fe5b602002018463ffffffff1663ffffffff168152508463ffffffff1663ffffffff168152508463ffffffff1663ffffffff168152508463ffffffff1663ffffffff168152505050505061338b8160016010811061332757fe5b60200201518260056010811061333957fe5b60200201518360096010811061334b57fe5b602002015184600d6010811061335d57fe5b60200201518a60056010811061336f57fe5b60200201518b60006010811061338157fe5b6020020151610272565b8460016010811061339857fe5b60200201856005601081106133a957fe5b60200201866009601081106133ba57fe5b6020020187600d601081106133cb57fe5b602002018463ffffffff1663ffffffff168152508463ffffffff1663ffffffff168152508463ffffffff1663ffffffff168152508463ffffffff1663ffffffff16815250505050506134878160026010811061342357fe5b60200201518260066010811061343557fe5b602002015183600a6010811061344757fe5b602002015184600e6010811061345957fe5b60200201518a60016010811061346b57fe5b60200201518b60096010811061347d57fe5b6020020151610272565b8460026010811061349457fe5b60200201856006601081106134a557fe5b6020020186600a601081106134b657fe5b6020020187600e601081106134c757fe5b602002018463ffffffff1663ffffffff168152508463ffffffff1663ffffffff168152508463ffffffff1663ffffffff168152508463ffffffff1663ffffffff16815250505050506135838160036010811061351f57fe5b60200201518260076010811061353157fe5b602002015183600b6010811061354357fe5b602002015184600f6010811061355557fe5b60200201518a60086010811061356757fe5b60200201518b60066010811061357957fe5b6020020151610272565b8460036010811061359057fe5b60200201856007601081106135a157fe5b6020020186600b601081106135b257fe5b6020020187600f601081106135c357fe5b602002018463ffffffff1663ffffffff168152508463ffffffff1663ffffffff168152508463ffffffff1663ffffffff168152508463ffffffff1663ffffffff168152505050505061367f8160006010811061361b57fe5b60200201518260056010811061362d57fe5b602002015183600a6010811061363f57fe5b602002015184600f6010811061365157fe5b60200201518a600e6010811061366357fe5b60200201518b600a6010811061367557fe5b6020020151610272565b8460006010811061368c57fe5b602002018560056010811061369d57fe5b6020020186600a601081106136ae57fe5b6020020187600f601081106136bf57fe5b602002018463ffffffff1663ffffffff168152508463ffffffff1663ffffffff168152508463ffffffff1663ffffffff168152508463ffffffff1663ffffffff168152505050505061377b8160016010811061371757fe5b60200201518260066010811061372957fe5b602002015183600b6010811061373b57fe5b602002015184600c6010811061374d57fe5b60200201518a60026010811061375f57fe5b60200201518b600c6010811061377157fe5b6020020151610272565b8460016010811061378857fe5b602002018560066010811061379957fe5b6020020186600b601081106137aa57fe5b6020020187600c601081106137bb57fe5b602002018463ffffffff1663ffffffff168152508463ffffffff1663ffffffff168152508463ffffffff1663ffffffff168152508463ffffffff1663ffffffff16815250505050506138778160026010811061381357fe5b60200201518260076010811061382557fe5b60200201518360086010811061383757fe5b602002015184600d6010811061384957fe5b60200201518a60036010811061385b57fe5b60200201518b60046010811061386d57fe5b6020020151610272565b8460026010811061388457fe5b602002018560076010811061389557fe5b60200201866008601081106138a657fe5b6020020187600d601081106138b757fe5b602002018463ffffffff1663ffffffff168152508463ffffffff1663ffffffff168152508463ffffffff1663ffffffff168152508463ffffffff1663ffffffff16815250505050506139738160036010811061390f57fe5b60200201518260046010811061392157fe5b60200201518360096010811061393357fe5b602002015184600e6010811061394557fe5b60200201518a60076010811061395757fe5b60200201518b600d6010811061396957fe5b6020020151610272565b8460036010811061398057fe5b602002018560046010811061399157fe5b60200201866009601081106139a257fe5b6020020187600e601081106139b357fe5b602002018463ffffffff1663ffffffff168152508463ffffffff1663ffffffff168152508463ffffffff1663ffffffff168152508463ffffffff1663ffffffff168152505050505080600860108110613a0857fe5b602002015181600060108110613a1a57fe5b602002018181511891509063ffffffff16908163ffffffff168152505080600960108110613a4457fe5b602002015181600160108110613a5657fe5b602002018181511891509063ffffffff16908163ffffffff168152505080600a60108110613a8057fe5b602002015181600260108110613a9257fe5b602002018181511891509063ffffffff16908163ffffffff168152505080600b60108110613abc57fe5b602002015181600360108110613ace57fe5b602002018181511891509063ffffffff16908163ffffffff168152505080600c60108110613af857fe5b602002015181600460108110613b0a57fe5b602002018181511891509063ffffffff16908163ffffffff168152505080600d60108110613b3457fe5b602002015181600560108110613b4657fe5b602002018181511891509063ffffffff16908163ffffffff168152505080600e60108110613b7057fe5b602002015181600660108110613b8257fe5b602002018181511891509063ffffffff16908163ffffffff168152505080600f60108110613bac57fe5b602002015181600760108110613bbe57fe5b602002018181511891509063ffffffff16908163ffffffff168152505086600060088110613be857fe5b602002015181600860108110613bfa57fe5b602002018181511891509063ffffffff16908163ffffffff168152505086600160088110613c2457fe5b602002015181600960108110613c3657fe5b602002018181511891509063ffffffff16908163ffffffff168152505086600260088110613c6057fe5b602002015181600a60108110613c7257fe5b602002018181511891509063ffffffff16908163ffffffff168152505086600360088110613c9c57fe5b602002015181600b60108110613cae57fe5b602002018181511891509063ffffffff16908163ffffffff168152505086600460088110613cd857fe5b602002015181600c60108110613cea57fe5b602002018181511891509063ffffffff16908163ffffffff168152505086600560088110613d1457fe5b602002015181600d60108110613d2657fe5b602002018181511891509063ffffffff16908163ffffffff168152505086600660088110613d5057fe5b602002015181600e60108110613d6257fe5b602002018181511891509063ffffffff16908163ffffffff168152505086600760088110613d8c57fe5b602002015181600f60108110613d9e57fe5b602002018181511891509063ffffffff16908163ffffffff16815250508091505095945050505050565b60405180610200016040528060109060208202803883398082019150509050509056fea265627a7a72315820e6bd27fbb637b7fe5781fbe4faa015fa74d2b055c31409d5c7dace7e18b8665064736f6c63430005100032",
  "source": "pragma solidity >= 0.5.0;\n\ncontract Blake3 {\n\n  uint32 constant IV0 = 0x6a09e667;\n  uint32 constant IV1 = 0xbb67ae85;\n  uint32 constant IV2 = 0x3c6ef372;\n  uint32 constant IV3 = 0xa54ff53a;\n  uint32 constant IV4 = 0x510e527f;\n  uint32 constant IV5 = 0x9b05688c;\n  uint32 constant IV6 = 0x1f83d9ab;\n  uint32 constant IV7 = 0x5be0cd19;\n\n  constructor() public {\n  }\n\n  function G(\n    uint32 a,\n    uint32 b,\n    uint32 c,\n    uint32 d,\n    uint32 m2i0,\n    uint32 m2i1\n  ) public pure\n    returns (uint32, uint32, uint32, uint32)\n  {\n    uint32 _a = a;\n    uint32 _b = b;\n    uint32 _c = c;\n    uint32 _d = d;\n\n    _a = _a + _b + m2i0;\n    _d = (( _d ^ _a ) >> 16) + (( _d ^ _a ) << 16);\n    _c = _c + _d;\n    _b = (( _b ^ _c ) >> 12) + (( _b ^ _c ) << 20);\n    _a = _a + _b + m2i1;\n    _d = (( _d ^ _a ) >> 8) + (( _d ^ _a ) << 24);\n    _c = _c + _d;\n    _b = (( _b ^ _c ) >> 7) + (( _b ^ _c ) << 25);\n    return (_a, _b, _c, _d);\n  }\n\n  function compress(\n    uint32[8] memory h,     // chaining value\n    uint32[16] memory m,    // message block\n    uint64 t,               // counter (t0, t1) - t0 lower, t1 higher\n    uint32 b,               // # of bytes in message block\n    uint32 d                // flags\n  ) public pure\n    returns (uint32[16] memory)\n  {\n    uint32[16] memory v;\n\n    // The rounds and permutations between rounds are unrolled.\n\n    // round 1 (and state initialization)\n    // columns\n    (v[0], v[4], v[8], v[12]) = G(h[0], h[4], IV0, uint32(t), m[0], m[1]);\n    (v[1], v[5], v[9], v[13]) = G(h[1], h[5], IV1, uint32(t >> 32), m[2], m[3]);\n    (v[2], v[6], v[10], v[14]) = G(h[2], h[6], IV2, b, m[4], m[5]);\n    (v[3], v[7], v[11], v[15]) = G(h[3], h[7], IV3, d, m[6], m[7]);\n    // diagonals\n    (v[0], v[5], v[10], v[15]) = G(v[0], v[5], v[10], v[15], m[8], m[9]);\n    (v[1], v[6], v[11], v[12]) = G(v[1], v[6], v[11], v[12], m[10], m[11]);\n    (v[2], v[7], v[8], v[13]) = G(v[2], v[7], v[8], v[13], m[12], m[13]);\n    (v[3], v[4], v[9], v[14]) = G(v[3], v[4], v[9], v[14], m[14], m[15]);\n\n    // round 2\n    (v[0], v[4],  v[8], v[12]) = G(v[0], v[4], v[8], v[12], m[2], m[6]);\n    (v[1], v[5], v[9], v[13]) = G(v[1], v[5], v[9], v[13],  m[3], m[10]);\n    (v[2], v[6], v[10], v[14]) = G(v[2], v[6], v[10], v[14],  m[7], m[0]);\n    (v[3], v[7], v[11], v[15]) = G(v[3], v[7], v[11], v[15], m[4], m[13]);\n    (v[0], v[5], v[10], v[15]) = G(v[0], v[5], v[10], v[15], m[1], m[11]);\n    (v[1], v[6], v[11], v[12]) = G(v[1], v[6], v[11], v[12], m[12], m[5]);\n    (v[2], v[7], v[8], v[13]) = G(v[2], v[7],  v[8], v[13], m[9], m[14]);\n    (v[3], v[4], v[9], v[14]) = G(v[3], v[4], v[9], v[14], m[15], m[8]);\n\n    // round 3\n    (v[0], v[4],  v[8], v[12]) = G(v[0], v[4], v[8], v[12], m[3], m[4]);\n    (v[1], v[5], v[9], v[13]) = G(v[1], v[5], v[9], v[13],  m[10], m[12]);\n    (v[2], v[6], v[10], v[14]) = G(v[2], v[6], v[10], v[14],  m[13], m[2]);\n    (v[3], v[7], v[11], v[15]) = G(v[3], v[7], v[11], v[15], m[7], m[14]);\n    (v[0], v[5], v[10], v[15]) = G(v[0], v[5], v[10], v[15], m[6], m[5]);\n    (v[1], v[6], v[11], v[12]) = G(v[1], v[6], v[11], v[12], m[9], m[0]);\n    (v[2], v[7], v[8], v[13]) = G(v[2], v[7],  v[8], v[13], m[11], m[15]);\n    (v[3], v[4], v[9], v[14]) = G(v[3], v[4], v[9], v[14], m[8], m[1]);\n\n    // round 4\n    (v[0], v[4],  v[8], v[12]) = G(v[0], v[4], v[8], v[12], m[10], m[7]);\n    (v[1], v[5], v[9], v[13]) = G(v[1], v[5], v[9], v[13],  m[12], m[9]);\n    (v[2], v[6], v[10], v[14]) = G(v[2], v[6], v[10], v[14],  m[14], m[3]);\n    (v[3], v[7], v[11], v[15]) = G(v[3], v[7], v[11], v[15], m[13], m[15]);\n    (v[0], v[5], v[10], v[15]) = G(v[0], v[5], v[10], v[15], m[4], m[0]);\n    (v[1], v[6], v[11], v[12]) = G(v[1], v[6], v[11], v[12], m[11], m[2]);\n    (v[2], v[7], v[8], v[13]) = G(v[2], v[7],  v[8], v[13], m[5], m[8]);\n    (v[3], v[4], v[9], v[14]) = G(v[3], v[4], v[9], v[14], m[1], m[6]);\n\n    // round 5\n    (v[0], v[4],  v[8], v[12]) = G(v[0], v[4], v[8], v[12], m[12], m[13]);\n    (v[1], v[5], v[9], v[13]) = G(v[1], v[5], v[9], v[13],  m[9], m[11]);\n    (v[2], v[6], v[10], v[14]) = G(v[2], v[6], v[10], v[14],  m[15], m[10]);\n    (v[3], v[7], v[11], v[15]) = G(v[3], v[7], v[11], v[15], m[14], m[8]);\n    (v[0], v[5], v[10], v[15]) = G(v[0], v[5], v[10], v[15], m[7], m[2]);\n    (v[1], v[6], v[11], v[12]) = G(v[1], v[6], v[11], v[12], m[5], m[3]);\n    (v[2], v[7], v[8], v[13]) = G(v[2], v[7],  v[8], v[13], m[0], m[1]);\n    (v[3], v[4], v[9], v[14]) = G(v[3], v[4], v[9], v[14], m[6], m[4]);\n\n    // round 6\n    (v[0], v[4],  v[8], v[12]) = G(v[0], v[4], v[8], v[12], m[9], m[14]);\n    (v[1], v[5], v[9], v[13]) = G(v[1], v[5], v[9], v[13],  m[11], m[5]);\n    (v[2], v[6], v[10], v[14]) = G(v[2], v[6], v[10], v[14],  m[8], m[12]);\n    (v[3], v[7], v[11], v[15]) = G(v[3], v[7], v[11], v[15], m[15], m[1]);\n    (v[0], v[5], v[10], v[15]) = G(v[0], v[5], v[10], v[15], m[13], m[3]);\n    (v[1], v[6], v[11], v[12]) = G(v[1], v[6], v[11], v[12], m[0], m[10]);\n    (v[2], v[7], v[8], v[13]) = G(v[2], v[7],  v[8], v[13], m[2], m[6]);\n    (v[3], v[4], v[9], v[14]) = G(v[3], v[4], v[9], v[14], m[4], m[7]);\n\n    // round 7\n    (v[0], v[4],  v[8], v[12]) = G(v[0], v[4], v[8], v[12], m[11], m[15]);\n    (v[1], v[5], v[9], v[13]) = G(v[1], v[5], v[9], v[13],  m[5], m[0]);\n    (v[2], v[6], v[10], v[14]) = G(v[2], v[6], v[10], v[14],  m[1], m[9]);\n    (v[3], v[7], v[11], v[15]) = G(v[3], v[7], v[11], v[15], m[8], m[6]);\n    (v[0], v[5], v[10], v[15]) = G(v[0], v[5], v[10], v[15], m[14], m[10]);\n    (v[1], v[6], v[11], v[12]) = G(v[1], v[6], v[11], v[12], m[2], m[12]);\n    (v[2], v[7], v[8], v[13]) = G(v[2], v[7],  v[8], v[13], m[3], m[4]);\n    (v[3], v[4], v[9], v[14]) = G(v[3], v[4], v[9], v[14], m[7], m[13]);\n\n    // finalization\n    v[0] ^= v[8]; v[1] ^= v[9]; v[2] ^= v[10]; v[3] ^= v[11];\n    v[4] ^= v[12]; v[5] ^= v[13]; v[6] ^= v[14]; v[7] ^= v[15];\n    v[8] ^= h[0]; v[9] ^= h[1]; v[10] ^= h[2]; v[11] ^= h[3];\n    v[12] ^= h[4]; v[13] ^= h[5]; v[14] ^= h[6]; v[15] ^= h[7];\n\n    return v;\n  }\n\n  function round(\n    uint32[16] memory v,\n    uint32[16] memory m\n  ) private pure\n    returns (uint32[16] memory)\n  {\n    // v: state\n    // m: message\n    (v[0], v[4],  v[8], v[12]) = G(v[0], v[4],  v[8], v[12],  m[0], m[1]);    // G0\n    (v[1], v[5],  v[9], v[13]) = G(v[1], v[5],  v[9], v[13],  m[2], m[3]);    // G1\n    (v[2], v[6], v[10], v[14]) = G(v[2], v[6], v[10], v[14],  m[4], m[5]);    // G2\n    (v[3], v[7], v[11], v[15]) = G(v[3], v[7], v[11], v[15],  m[6], m[7]);    // G3\n    (v[0], v[5], v[10], v[15]) = G(v[0], v[5], v[10], v[15],  m[8], m[9]);    // G4\n    (v[1], v[6], v[11], v[12]) = G(v[1], v[6], v[11], v[12], m[10], m[11]);   // G5\n    (v[2], v[7],  v[8], v[13]) = G(v[2], v[7],  v[8], v[13], m[12], m[13]);   // G6\n    (v[3], v[4],  v[9], v[14]) = G(v[3], v[4],  v[9], v[14], m[14], m[15]);   // G7\n    return v;\n  }\n\n  function hash() public pure returns (uint32) {\n    return IV0;\n  }\n}\n",
  "sourcePath": "/Users/ionutcosmin/Documents/Dizertatie/blockchain/contracts/Blake3.sol",
  "compiler": {
    "name": "solc",
    "version": "0.5.16+commit.9c3226ce.Emscripten.clang"
  },
  "schemaVersion": "3.1.0",
  "updatedAt": "2020-08-23T17:12:02.659Z",
  "devdoc": {
    "methods": {}
  },
  "userdoc": {
    "methods": {}
  }
}