{
  "contractName": "Blake2",
  "abi": [
    {
      "constant": true,
      "inputs": [
        {
          "internalType": "bytes8[8]",
          "name": "h",
          "type": "bytes8[8]"
        },
        {
          "internalType": "bytes32[4]",
          "name": "chunk",
          "type": "bytes32[4]"
        },
        {
          "internalType": "uint128",
          "name": "t",
          "type": "uint128"
        },
        {
          "internalType": "bool",
          "name": "is_last_block",
          "type": "bool"
        }
      ],
      "name": "compress",
      "outputs": [
        {
          "internalType": "bytes8[8]",
          "name": "",
          "type": "bytes8[8]"
        }
      ],
      "payable": false,
      "stateMutability": "view",
      "type": "function"
    },
    {
      "constant": true,
      "inputs": [
        {
          "internalType": "bytes",
          "name": "input",
          "type": "bytes"
        }
      ],
      "name": "hash",
      "outputs": [
        {
          "internalType": "bytes8[8]",
          "name": "",
          "type": "bytes8[8]"
        }
      ],
      "payable": false,
      "stateMutability": "view",
      "type": "function"
    }
  ],
  "bytecode": "0x608060405234801561001057600080fd5b5061091f806100206000396000f3fe608060405234801561001057600080fd5b50600436106100365760003560e01c8063aa1e84de1461003b578063e5e66aaf14610132575b600080fd5b6100f46004803603602081101561005157600080fd5b810190808035906020019064010000000081111561006e57600080fd5b82018360208201111561008057600080fd5b803590602001918460018302840111640100000000831117156100a257600080fd5b91908080601f016020809104026020016040519081016040528093929190818152602001838380828437600081840152601f19601f82011690508083019250505050505050919291929050505061023e565b6040518082600860200280838360005b8381101561011f578082015181840152602081019050610104565b5050505090500191505060405180910390f35b61020060048036036101c081101561014957600080fd5b810190808061010001906008806020026040519081016040528092919082600860200280828437600081840152601f19601f820116905080830192505050505050919291929080608001906004806020026040519081016040528092919082600460200280828437600081840152601f19601f820116905080830192505050505050919291929080356fffffffffffffffffffffffffffffffff1690602001909291908035151590602001909291905050506106ec565b6040518082600860200280838360005b8381101561022b578082015181840152602081019050610210565b5050505090500191505060405180910390f35b610246610861565b600080610251610884565b60008060009050610260610861565b604051806101000160405280676a09e667f3bcc90860c01b77ffffffffffffffffffffffffffffffffffffffffffffffff191677ffffffffffffffffffffffffffffffffffffffffffffffff1916815260200167bb67ae8584caa73b60c01b77ffffffffffffffffffffffffffffffffffffffffffffffff191677ffffffffffffffffffffffffffffffffffffffffffffffff19168152602001673c6ef372fe94f82b60c01b77ffffffffffffffffffffffffffffffffffffffffffffffff191677ffffffffffffffffffffffffffffffffffffffffffffffff1916815260200167a54ff53a5f1d36f160c01b77ffffffffffffffffffffffffffffffffffffffffffffffff191677ffffffffffffffffffffffffffffffffffffffffffffffff1916815260200167510e527fade682d160c01b77ffffffffffffffffffffffffffffffffffffffffffffffff191677ffffffffffffffffffffffffffffffffffffffffffffffff19168152602001679b05688c2b3e6c1f60c01b77ffffffffffffffffffffffffffffffffffffffffffffffff191677ffffffffffffffffffffffffffffffffffffffffffffffff19168152602001671f83d9abfb41bd6b60c01b77ffffffffffffffffffffffffffffffffffffffffffffffff191677ffffffffffffffffffffffffffffffffffffffffffffffff19168152602001675be0cd19137e217960c01b77ffffffffffffffffffffffffffffffffffffffffffffffff191677ffffffffffffffffffffffffffffffffffffffffffffffff19168152509050630101004060c01b816000600881106104b957fe5b602002015118816000600881106104cc57fe5b602002019077ffffffffffffffffffffffffffffffffffffffffffffffff1916908177ffffffffffffffffffffffffffffffffffffffffffffffff191681525050600080905060008951905060008467ffffffffffffffff161115610532576080810190505b5b6080816fffffffffffffffffffffffffffffffff16111561061057600097505b6004886fffffffffffffffffffffffffffffffff161015610592576020880282602001019650868a015194508460208902870152600188019750610553565b6080820191506080810390506105ab83878460006106ec565b925060005b61010081101561060a576000806000805b60048110156105fb57808501925080600703850191508288015193508188015160f81c838901538360f81c828901536001810190506105c1565b505050506020810190506105b0565b50610533565b6000801b8660006004811061062157fe5b6020020181815250506000801b8660016004811061063b57fe5b6020020181815250506000801b8660026004811061065557fe5b6020020181815250506000801b8660036004811061066f57fe5b602002018181525050600097505b806fffffffffffffffffffffffffffffffff16886fffffffffffffffffffffffffffffffff1610156106c857602088830101808b015160f81c8988015350878060010198505061067d565b80820191506106da83878460016106ec565b92508298505050505050505050919050565b6106f4610861565b6106fc6108a6565b6107046108c8565b600c600383015360008090505b6008811215610790578060080260040160018201600802600301600160028284010401600080856020028d015186600802600401890152845b8381101561077d57858186030191508089015192508189015160f81c818a01538260f81c828a015360018101905061074a565b5050505050508080600101915050610711565b50855160448301526020860151606483015260408601516084830152606086015160a48301528460801b60c483015260008060c45b60cc8110156107fb5760c48160d3030191508085015192508185015160f81c818601538260f81c828601536001810190506107c5565b505050831561081057600160d4830153610818565b600060d48301535b60408160d58460095afa61082b57600080fd5b6000805b6101008210156108525780830151828a015260208201915060088101905061082f565b50508692505050949350505050565b604051806101000160405280600890602082028038833980820191505090505090565b6040518060800160405280600490602082028038833980820191505090505090565b6040518060e00160405280600790602082028038833980820191505090505090565b604051806040016040528060029060208202803883398082019150509050509056fea265627a7a723158206791c534f72785a1216d758d879b82fc3ef5cd8409538e4f9c546a60f2527cf964736f6c63430005100032",
  "source": "pragma solidity >= 0.5.0;\n\ncontract Blake2 {\n\n  bytes8 constant IV0 = 0x6a09e667f3bcc908;\n  bytes8 constant IV1 = 0xbb67ae8584caa73b;\n  bytes8 constant IV2 = 0x3c6ef372fe94f82b;\n  bytes8 constant IV3 = 0xa54ff53a5f1d36f1;\n  bytes8 constant IV4 = 0x510e527fade682d1;\n  bytes8 constant IV5 = 0x9b05688c2b3e6c1f;\n  bytes8 constant IV6 = 0x1f83d9abfb41bd6b;\n  bytes8 constant IV7 = 0x5be0cd19137e2179;\n\n\n  function compress(\n    bytes8[8] memory h,         // state vector\n    bytes32[4] memory chunk,    // 128-byte chunk of message to compress\n    uint128 t,                  // count of bytes that have been fed into the compression\n    bool is_last_block\n  ) public view\n  returns (bytes8[8] memory)\n  {\n    bytes32[7] memory input;        // needs to be 213 bytes\n    // uint32 rounds = 12;\n    bytes32[2] memory fnc_output;\n\n    assembly {\n      mstore8(add(input, 3), 12)                      // sets rounds\n    }\n\n    // sets h correctly\n    for (int i = 0; i < 8; i++) {\n      assembly {\n        let input_start := add(4, mul(8, i))\n        let input_end := add(3, mul(8, add(i, 1)))\n        let middle := add(div(add(input_start, input_end), 2), 1)\n        let aux := 0\n        let offset2 := 0\n\n        // sets h\n        mstore(\n          add(input, add(4, mul(8, i))),\n          mload(add(h, mul(32, i)))\n        )\n\n        // swap byte order - go implementation requires little endian, not big endian\n        for {let j := input_start} lt(j, middle) { j := add(j, 1) } {\n          // j := input_start\n          offset2 := add(sub(input_end, j), input_start)\n          aux := mload(add(input, j))\n          mstore8(add(input, j), shr(248, mload(add(input, offset2))))\n          mstore8(add(input, offset2), shr(248, aux))\n        }\n\n      }\n    }\n\n    assembly {\n      mstore(add(input, 68), mload(chunk))            // sets message\n      mstore(add(input, 100), mload(add(chunk, 32)))\n      mstore(add(input, 132), mload(add(chunk, 64)))\n      mstore(add(input, 164), mload(add(chunk, 96)))\n\n      mstore(add(input, 196), shl(128, t))               // sets t\n\n      let aux := 0\n      let offset2 := 0\n      // swap byte order - go implementation requires little endian, not big endian\n      for {let j := 196} lt(j, 204) { j := add(j, 1) } {\n        // j := input_start\n        offset2 := add(sub(211, j), 196)\n        aux := mload(add(input, j))\n        mstore8(add(input, j), shr(248, mload(add(input, offset2))))\n        mstore8(add(input, offset2), shr(248, aux))\n      }\n    }\n    \n    if (is_last_block) {\n      assembly { mstore8(add(input, 212), 1) }\n    }\n    else {\n      assembly { mstore8(add(input, 212), 0) }\n    }\n\n    assembly {\n\t\t\t// mstore(xti, 2)            //Place size\n\t\t\t// mstore(add(x,0x04), 123)  //Place first argument directly next to signature\n\t\t\t// mstore(add(x,0x24), 456)  //Place second argument next to first, padded to 32 bytes\n\t\t\tif iszero(staticcall(      //This is the critical change (Pop the top stack value)\n\t\t\t\t\t\t\t\tgas(),     //gas\n\t\t\t\t\t\t\t\t0x9,       //Contract addr\n\t\t\t\t\t\t\t\t// 0,      //No value\n\t\t\t\t\t\t\t\tinput,     //Inputs are stored at location x\n\t\t\t\t\t\t\t\t213,       //Input number of bytes\n\t\t\t\t\t\t\t\tfnc_output,    //Output address\n\t\t\t\t\t\t\t\t64)        //Output number of bytes\n      ) {\n        revert(0, 0)\n      }\n\t\t}\n\n    assembly { \n      for {\n        let ih := 0\n        let ifnc_output := 0\n      } lt(ih, 256) {\n         ih := add(ih, 32)\n         ifnc_output := add(ifnc_output, 8)\n      } {\n        mstore(add(h, ih), mload(add(fnc_output, ifnc_output)))\n      }\n\n    }\n\n    return h;\n  }\n\n  function hash(\n      bytes memory input\n  ) public view\n  returns (bytes8[8] memory) {\n\n    uint128 i;\n    uint128 p;\n    bytes32[4] memory chunk;\n    bytes32 temp;\n\n    uint64 cbKeyLen = 0;    // No keyed hash\n    // Initialize State vector h with IV\n    bytes8[8] memory h = [IV0, IV1, IV2, IV3, IV4, IV5, IV6, IV7];\n\n    //Mix key size (cbKeyLen) and desired hash length (cbHashLen) into h0\n    //kk = key len in bytes\n    //nn = desired hash len in bytes - 64 = 0x40\n    h[0] = h[0] ^ 0x0000000001010040;    // 0x0101kknn\n\n    //Each time we Compress we record how many bytes have been compressed\n    uint128 cBytesCompressed = 0;\n    uint128 cBytesRemaining = uint128(input.length);\n\n    //If there was a key supplied (i.e. cbKeyLen > 0) \n    //then pad with trailing zeros to make it 128-bytes (i.e. 16 words) \n    //and prepend it to the message M\n    if (cbKeyLen > 0) {     // won't be > 0 for these tests\n        // M = pad(key, 128) || M\n        cBytesRemaining = cBytesRemaining + 128;\n    }\n\n    //Compress whole 128-byte chunks of the message, except the last chunk\n    while (cBytesRemaining > 128) {\n        //chunk = get next 128bytes chunk from M\n        for( i = 0; i < 4; i = i + 1) {\n            p = 32 + cBytesCompressed + (i * 32);\n            assembly {\n                temp := mload(add(input, p))\n                mstore(add(chunk, mul(i, 32)), temp)\n            }\n            // chunk[i] = temp;\n        }\n\n        cBytesCompressed = cBytesCompressed + 128;\n        cBytesRemaining = cBytesRemaining - 128;\n        h = compress(h, chunk, cBytesCompressed, false);    // false => not last chunk\n\n        // reverse endianness for h\n        assembly { \n          for {let ih := 0} lt(ih, 256) {ih := add(ih, 32)} {\n           \n            let aux := 0\n            let offset1 := 0\n            let offset2 := 0\n            // swap byte order - go implementation requires little endian, not big endian\n            for {let j := 0} lt(j, 4) { j := add(j, 1) } {\n              // j := input_start\n              offset1 := add(ih, j)\n              offset2 := add(ih, sub(7, j))\n              aux := mload(add(h, offset1))\n              mstore8(add(h, offset1), shr(248, mload(add(h, offset2))))\n              mstore8(add(h, offset2), shr(248, aux))\n            }\n          }\n\n        }\n    }\n\n    //Compress the final bytes from M\n\n    //    chunk ← Pad(chunk, 128)  If M was empty, then we will still compress a final chunk of zeros\n    chunk[0] = 0; chunk[1] = 0; chunk[2] = 0; chunk[3] = 0;\n    //    chunk ← get next 128 bytes of message M  We will get cBytesRemaining bytes (i.e. 0..128 bytes)\n    for (i = 0; i < cBytesRemaining; i++) {\n        assembly{\n            let offset := add(add(cBytesCompressed, i), 32)\n            // ((char*)chunk)[i] = input[32 + cBytesCompressed + i]\n            mstore8(add(chunk, i), shr(248, mload(add(input, offset))))\n        }\n    }\n    cBytesCompressed = cBytesCompressed + cBytesRemaining;  // The actual number of bytes leftover in M\n\n    h = compress(h, chunk, cBytesCompressed, true);          // true ⇒ this is the last chunk\n    return h;\n  }\n\n}\n",
  "sourcePath": "/Users/ionutcosmin/Documents/Dizertatie/blockchain/contracts/Blake2.sol",
  "compiler": {
    "name": "solc",
    "version": "0.5.16+commit.9c3226ce.Emscripten.clang"
  },
  "schemaVersion": "3.1.0",
  "updatedAt": "2021-02-17T11:15:43.777Z",
  "networkType": "ethereum",
  "devdoc": {
    "methods": {}
  },
  "userdoc": {
    "methods": {}
  }
}