{
  "contractName": "Blake3",
  "abi": [
    {
      "inputs": [],
      "payable": false,
      "stateMutability": "nonpayable",
      "type": "constructor"
    },
    {
      "constant": true,
      "inputs": [
        {
          "internalType": "bytes32",
          "name": "in_cv",
          "type": "bytes32"
        },
        {
          "internalType": "bytes32[2]",
          "name": "in_m",
          "type": "bytes32[2]"
        },
        {
          "internalType": "uint64",
          "name": "t",
          "type": "uint64"
        },
        {
          "internalType": "uint32",
          "name": "b",
          "type": "uint32"
        },
        {
          "internalType": "uint32",
          "name": "d",
          "type": "uint32"
        }
      ],
      "name": "compress",
      "outputs": [
        {
          "internalType": "bytes32[2]",
          "name": "output",
          "type": "bytes32[2]"
        }
      ],
      "payable": false,
      "stateMutability": "view",
      "type": "function"
    },
    {
      "constant": true,
      "inputs": [
        {
          "internalType": "bytes32",
          "name": "cv",
          "type": "bytes32"
        },
        {
          "internalType": "bytes32[32]",
          "name": "message",
          "type": "bytes32[32]"
        },
        {
          "internalType": "uint32",
          "name": "len_m",
          "type": "uint32"
        },
        {
          "internalType": "uint64",
          "name": "t",
          "type": "uint64"
        },
        {
          "internalType": "bool",
          "name": "is_root",
          "type": "bool"
        }
      ],
      "name": "process_chunk",
      "outputs": [
        {
          "internalType": "bytes32[2]",
          "name": "slice",
          "type": "bytes32[2]"
        }
      ],
      "payable": false,
      "stateMutability": "view",
      "type": "function"
    },
    {
      "constant": true,
      "inputs": [
        {
          "internalType": "bytes",
          "name": "input",
          "type": "bytes"
        },
        {
          "internalType": "bytes32",
          "name": "key",
          "type": "bytes32"
        }
      ],
      "name": "keyed_hash",
      "outputs": [
        {
          "internalType": "bytes32[2]",
          "name": "",
          "type": "bytes32[2]"
        }
      ],
      "payable": false,
      "stateMutability": "view",
      "type": "function"
    },
    {
      "constant": true,
      "inputs": [
        {
          "internalType": "bytes",
          "name": "input",
          "type": "bytes"
        }
      ],
      "name": "mybytestouint32",
      "outputs": [
        {
          "internalType": "uint32[16]",
          "name": "",
          "type": "uint32[16]"
        }
      ],
      "payable": false,
      "stateMutability": "pure",
      "type": "function"
    }
  ],
  "bytecode": "0x608060405234801561001057600080fd5b50610c0d806100206000396000f3fe608060405234801561001057600080fd5b506004361061004c5760003560e01c806338ad6520146100515780637a82c28d1461012d57806383bc71ff1461020c578063ad5fe51d14610303575b600080fd5b6100ef600480360361048081101561006857600080fd5b810190808035906020019092919080610400019060208060200260405190810160405280929190826020800280828437600081840152601f19601f8201169050808301925050505050509192919290803563ffffffff169060200190929190803567ffffffffffffffff169060200190929190803515159060200190929190505050610404565b6040518082600260200280838360005b8381101561011a5780820151818401526020810190506100ff565b5050505090500191505060405180910390f35b6101ce600480360360c081101561014357600080fd5b810190808035906020019092919080604001906002806020026040519081016040528092919082600260200280828437600081840152601f19601f8201169050808301925050505050509192919290803567ffffffffffffffff169060200190929190803563ffffffff169060200190929190803563ffffffff169060200190929190505050610690565b6040518082600260200280838360005b838110156101f95780820151818401526020810190506101de565b5050505090500191505060405180910390f35b6102c56004803603602081101561022257600080fd5b810190808035906020019064010000000081111561023f57600080fd5b82018360208201111561025157600080fd5b8035906020019184600183028401116401000000008311171561027357600080fd5b91908080601f016020809104026020016040519081016040528093929190818152602001838380828437600081840152601f19601f820116905080830192505050505050509192919290505050610800565b6040518082601060200280838360005b838110156102f05780820151818401526020810190506102d5565b5050505090500191505060405180910390f35b6103c66004803603604081101561031957600080fd5b810190808035906020019064010000000081111561033657600080fd5b82018360208201111561034857600080fd5b8035906020019184600183028401116401000000008311171561036a57600080fd5b91908080601f016020809104026020016040519081016040528093929190818152602001838380828437600081840152601f19601f82011690508083019250505050505050919291929080359060200190929190505050610865565b6040518082600260200280838360005b838110156103f15780820151818401526020810190506103d6565b5050505090500191505060405180910390f35b61040c610b4e565b600060068563ffffffff16901c90506000603f8616905060008060008863ffffffff16600014156104b4578615610444576008811790505b8960006020811061045157fe5b60200201518660006002811061046357fe5b6020020181815250508960016020811061047957fe5b60200201518660016002811061048b57fe5b6020020181815250506104a88b878a600085600260011717610690565b95505050505050610687565b600063ffffffff168463ffffffff1614156104d4576001850392506104d8565b8492505b600091505b8463ffffffff168263ffffffff1610156105c757896002830263ffffffff166020811061050657fe5b60200201518660006002811061051857fe5b602002018181525050896001600284020163ffffffff166020811061053957fe5b60200201518660016002811061054b57fe5b6020020181815250506000905060008263ffffffff16141561056e576001811790505b8263ffffffff168263ffffffff161415610596576002811790508615610595576008811790505b5b6105a48b878a604085610690565b9550856000600281106105b357fe5b60200201519a5081806001019250506104dd565b60008463ffffffff161461067e576002905060008563ffffffff1614156105ef576001811790505b86156105fc576008811790505b60008463ffffffff161461067d57896002860263ffffffff166020811061061f57fe5b60200201518660006002811061063157fe5b602002018181525050896001600287020163ffffffff166020811061065257fe5b60200201518660016002811061066457fe5b60200201818152505061067a8b878a8785610690565b95505b5b85955050505050505b95945050505050565b610698610b4e565b6106a0610b70565b86816000600481106106ae57fe5b602002018181525050856000600281106106c457fe5b6020020151816001600481106106d657fe5b602002018181525050856001600281106106ec57fe5b6020020151816002600481106106fe57fe5b6020020181815250506000801b8160036004811061071857fe5b60200201818152505060c067ffffffffffffffff861667ffffffffffffffff16901b60001b8160036004811061074a57fe5b6020020151178160036004811061075d57fe5b60200201818152505060a063ffffffff851663ffffffff16901b60001b8160036004811061078757fe5b6020020151178160036004811061079a57fe5b602002018181525050608063ffffffff841663ffffffff16901b60001b816003600481106107c457fe5b602002015117816003600481106107d757fe5b60200201818152505060408260708360135afa6107f357600080fd5b8191505095945050505050565b610808610b92565b6000806000610815610b92565b600186019350601f810192505b855182101561085957835183536001840193506001830392506001820191506003821660001415610854576024830192505b610822565b80945050505050919050565b61086d610b4e565b60008060008061087d8751610af8565b80945081955082965050505060008214610898576001830190505b6060846040519080825280602002602001820160405280156108c95781602001602082028038833980820191505090505b5090506108d4610bb5565b60006108de610b4e565b600080600080905060005b8a8267ffffffffffffffff161015610ae557610400600183010260200167ffffffffffffffff169b50610400820260200167ffffffffffffffff1693505b8b84101561096957838f015195508587610400840267ffffffffffffffff1660208703036020811061095557fe5b602002018181525050602084019350610927565b6109798e88610400856000610404565b94508460006002811061098857fe5b602002015188848151811061099957fe5b6020026020010181815250506001830192506001820191508190505b60008167ffffffffffffffff161180156109dc575060006001821667ffffffffffffffff16145b15610ae05760028167ffffffffffffffff16816109f557fe5b049050600283039250878381518110610a0a57fe5b602002602001015185600060028110610a1f57fe5b602002018181525050876001840181518110610a3757fe5b602002602001015185600160028110610a4c57fe5b602002018181525050888267ffffffffffffffff16148015610a6e5750600083145b15610a9957610a868e86600060406008600417610690565b9c50505050505050505050505050610af2565b610aa98e86600060406004610690565b945084600060028110610ab857fe5b6020020151888481518110610ac957fe5b6020026020010181815250506001830192506109b5565b6108e9565b5050505050505050505050505b92915050565b6000806000600a84901c915081905060006103ff851614610b1a576001810190505b600192506000600190505b81811015610b3f57600184019350600181901b9050610b25565b506103ff841690509193909250565b6040518060400160405280600290602082028038833980820191505090505090565b6040518060800160405280600490602082028038833980820191505090505090565b604051806102000160405280601090602082028038833980820191505090505090565b60405180610400016040528060209060208202803883398082019150509050509056fea265627a7a7231582051364a9211278e1f3288cb062c33c36026b413b2d93fc8c43d3a740bf863a45b64736f6c63430005100032",
  "source": "pragma solidity >= 0.5.0;\n\ncontract Blake3 {\n\n  uint32 constant IV0 = 0x6a09e667;\n  uint32 constant IV1 = 0xbb67ae85;\n  uint32 constant IV2 = 0x3c6ef372;\n  uint32 constant IV3 = 0xa54ff53a;\n  uint32 constant IV4 = 0x510e527f;\n  uint32 constant IV5 = 0x9b05688c;\n  uint32 constant IV6 = 0x1f83d9ab;\n  uint32 constant IV7 = 0x5be0cd19;\n\n  uint32 constant         CHUNK_START = 0x01;\n  uint32 constant           CHUNK_END = 0x02;\n  uint32 constant              PARENT = 0x04;\n  uint32 constant                ROOT = 0x08;\n  uint32 constant          KEYED_HASH = 0x10;\n  uint32 constant  DERIVE_KEY_CONTEXT = 0x20;\n  uint32 constant DERIVE_KEY_MATERIAL = 0x40;\n\n  constructor() public {\n  }\n\n  // function tada() public returns (bytes32[2] memory c) {\n\n  //   uint256[3] memory input;\n  //   input[0] = 1;\n  //   input[1] = 2;\n  //   input[2] = 3;\n\n  //   assembly {\n\t// \t\tlet x := mload(0x40)    //Find empty storage location using \"free memory pointer\"\n\n\t// \t\t// mstore(xti, 2)            //Place size\n\t// \t\t// mstore(add(x,0x04), 123)  //Place first argument directly next to signature\n\t// \t\t// mstore(add(x,0x24), 456)  //Place second argument next to first, padded to 32 bytes\n\n\t// \t\tlet success := staticcall(      //This is the critical change (Pop the top stack value)\n\t// \t\t\t\t\t\t\tgas(),      //gas\n\t// \t\t\t\t\t\t\t0x13,       //Contract addr\n\t// \t\t\t\t\t\t\t// 0, //No value\n\t// \t\t\t\t\t\t\tinput,      //Inputs are stored at location x\n\t// \t\t\t\t\t\t\t96,        //Input number of bytes\n\t// \t\t\t\t\t\t\tx,         //Output address\n\t// \t\t\t\t\t\t\t96)        //Output number of bytes\n\n  //     mstore(c, mload(x))\n  //     mstore(add(c, 32), mload(add(x, 32)))\n  //     mstore(add(c, 64), mload(add(x, 64)))\n\n\t// \t\tmstore(0x40,add(x,0x44))    // Set storage pointer to empty space\n\t// \t}\n\t// }\n\n  function compress(\n    bytes32           in_cv,    // chaining value\n    bytes32[2] memory in_m,     // message\n    uint64            t,        // counter - t=t0t1 - t0 lower order, t1 higher order\n    uint32            b,        // number of bytes in the block\n    uint32            d         // flags\n  ) public view\n  returns (bytes32[2] memory output)\n  {\n    bytes32[4] memory input;\n\n    input[0] = in_cv;\n    input[1] = in_m[0];\n    input[2] = in_m[1];\n    input[3] = 0;\n    input[3] = input[3] | bytes32((uint256(t & 0xffffffffffffffff) << 192));\n    input[3] = input[3] | bytes32((uint256(b & 0xffffffff) << 160));\n    input[3] = input[3] | bytes32((uint256(d & 0xffffffff) << 128));\n\n    assembly {\n\n\t\t\t// mstore(xti, 2)            //Place size\n\t\t\t// mstore(add(x,0x04), 123)  //Place first argument directly next to signature\n\t\t\t// mstore(add(x,0x24), 456)  //Place second argument next to first, padded to 32 bytes\n\n\t\t\tif iszero(staticcall(      //This is the critical change (Pop the top stack value)\n\t\t\t\t\t\t\t\tgas(),      //gas\n\t\t\t\t\t\t\t\t0x13,       //Contract addr\n\t\t\t\t\t\t\t\t// 0, //No value\n\t\t\t\t\t\t\t\tinput,     //Inputs are stored at location x\n\t\t\t\t\t\t\t\t112,       //Input number of bytes\n\t\t\t\t\t\t\t\toutput,         //Output address\n\t\t\t\t\t\t\t\t64)        //Output number of bytes\n      ) {\n        revert(0, 0)\n      }\n\n\t\t}\n\n    return output;\n  }\n\n  function process_chunk(\n    bytes32               cv,       // chaining value\n    bytes32[32] memory    message,  // message\n    uint32                len_m,    // message size\n    uint64                t,        // chunk number\n    bool                  is_root   // root or not\n  ) public view\n  returns (bytes32[2] memory slice)\n  {\n    uint32 num_full_blocks = len_m >> 6;    // div 64\n    uint32 last_block_sz = len_m & 0x3f;    // mod 64\n    uint32 last_block;\n    uint32 i;\n    uint32 d;\n\n\n    if (0 == len_m) {\n      if (is_root) {\n        d = d | ROOT;\n      }\n      slice[0] = message[0];\n      slice[1] = message[1];\n      return compress(cv, slice, t, 0, CHUNK_START | CHUNK_END | d);\n    }\n\n    if (last_block_sz == uint32(0)) {\n      last_block = num_full_blocks - 1;\n    }\n    else {\n      last_block = num_full_blocks;\n    }\n\n    for (i = 0; i < num_full_blocks; i++) {\n\n      // prepare message for compression\n      slice[0] = message[i*2];\n      slice[1] = message[i*2 + 1];\n\n      // prepare flags\n      d = 0;\n\n      if (i == 0) {\n        d = d | CHUNK_START;\n      }\n\n      if (i == last_block) {\n        d = d | CHUNK_END;\n        if (is_root) {\n          d = d | ROOT;\n        }\n      }\n\n      slice = compress(cv, slice, t, 64, d);\n\n      // truncate result\n      cv = slice[0];\n\n    }\n\n    if (last_block_sz != 0) {\n      d = CHUNK_END;\n      if (num_full_blocks == 0) {\n        d = d | CHUNK_START;\n      }\n      if (is_root) {\n        d = d | ROOT;\n      }\n\n      if (last_block_sz != 0) {\n        slice[0] = message[num_full_blocks * 2];\n        slice[1] = message[num_full_blocks * 2 + 1];\n        slice = compress(cv, slice, t, last_block_sz, d);\n      }\n    }\n\n    return slice;\n  }\n\n  // function keyed_hash(\n  //   bytes memory input,\n  //   bytes32 key\n  // ) public view\n  // returns (bytes32[2] memory)\n  // {\n  //   uint256 i;\n  //   uint256 j;\n\n  //   bytes32 temp;\n  //   bytes32[32] memory message;\n\n  //   bytes32[2] memory m;\n  //   bytes32[2] memory res;\n\n  //   uint256 stack_size;\n  //   uint256 num_full_chunks;\n  //   uint256 last_chunk_size;\n  //   uint256 total_chunks;\n\n  //   (stack_size, num_full_chunks, last_chunk_size) = stack_size_num_chunks(input.length);\n  //   if (last_chunk_size != 0) {\n  //     total_chunks = num_full_chunks + 1;\n  //   }\n  //   bytes32[] memory stack = new bytes32[](stack_size);\n\n  //   uint32 stack_index = 0;\n  //   uint64 chunk_nb = 0;\n  //   uint64 aux_chunk_nb;\n  //   // uint32 max = 0;\n\n  //   // iterate chunks\n  //   for (i = 32; i <= num_full_chunks * 1024; i += 1024) {\n\n  //     for(j = i; j < i+1024; j = j + 32) {\n  //       assembly {\n  //         temp := mload(add(input, j))\n  //       }\n  //       message[(j-i)/32] = temp;\n  //     }\n      \n  //     res = process_chunk(key, message, 1024, chunk_nb, false);\n\n  //     stack[stack_index] = res[0];\n\n  //     stack_index += 1;\n\n  //     chunk_nb += 1;\n\n  //     aux_chunk_nb = chunk_nb;\n  //     // max = 0;\n  //     while ((aux_chunk_nb > 0) && (aux_chunk_nb & 1 == 0)) {\n  //       // max += 1;\n  //       // if (max == 100) {\n  //       //   res[0] = uint32(aux_chunk_nb);\n  //       //   return res;\n  //       // }\n  //       aux_chunk_nb = aux_chunk_nb / 2;\n\n  //       stack_index -= 2;\n  //       m[0] = stack[stack_index];\n  //       m[1] = stack[stack_index + 1];\n\n  //       if ( (chunk_nb == total_chunks) && (stack_index == 0) ) {\n  //         return compress(key, m, 0, 64, PARENT | ROOT);\n  //       }\n\n  //       res = compress(key, m, 0, 64, PARENT);\n  //       stack[stack_index] = res[0];\n  //       stack_index += 1;\n\n  //     }\n\n  //   }\n\n  //   // iterate last chunk if it exists\n  //   // if (last_chunk_size != 0) {\n\n  //   //   for(j = 0; j < 32; j += 1) {\n  //   //     message[j] = 0;\n  //   //   }\n\n  //   //   for(j = full_chunks_size; j < full_chunks_size+last_chunk_size; j = j + 32) {\n  //   //     assembly {\n  //   //       temp := mload(add(input, j))\n  //   //     }\n  //   //     message[(j-i)/32] = temp;\n\n\n\n  //   // }\n\n  //   // finish stack\n  //   // here <-\n\n  //   return res;\n\n  //         // for(j = 32; j <= 1024; j = j + 32) {\n  //         //   assembly {\n  //         //     temp := mload(add(input, j))\n  //         //   }\n  //         //   message[(j/32)-1] = temp;\n  //         // }\n  //         // res = process_chunk(key, message, 1024, 0, true);\n  //         // return res;\n\n  //   // for(i=0;i<1024; i++) {\n  //   //   message[i] = input[i];\n  //   // }\n  //   // res1 = process_chunk(\n  //   //   key,\n  //   //   message,\n  //   //   0,\n  //   //   false\n  //   // );\n\n  //   // for(i=1024;i<2048; i++) {\n  //   //   message[i-1024] = input[i];\n  //   // }\n  //   // res2 = process_chunk(\n  //   //   key,\n  //   //   message,\n  //   //   1,\n  //   //   false\n  //   // );\n\n  //   // for (i=0; i<8; i++) {\n  //   //   m[i] = res1[i];\n  //   // }\n  //   // for (i=8; i<16; i++) {\n  //   //   m[i] = res2[i-8];\n  //   // }\n    \n  //   // res3 = compress(\n  //   //   key,\n  //   //   m,\n  //   //   0,\n  //   //   64,\n  //   //   PARENT | ROOT\n  //   // );\n\n  //   // return res3;\n    \n  //   // for(j = 0; j < 16; j++) {\n  //   //   res[j] = stack[j];\n  //   // }\n  //   // return res;\n  // }\n\n\n\n  // function keyed_hash(\n  //   bytes memory input,\n  //   bytes32 key\n  // ) public view\n  // returns (bytes32[2] memory)\n  // {\n  //   uint256 i;\n  //   uint256 j;\n\n  //   bytes32 temp;\n  //   bytes32[32] memory message;\n\n  //   bytes32[2] memory m;\n  //   bytes32[2] memory res;\n\n  //   uint256 stack_size;\n  //   uint256 num_chunks;\n\n  //   (stack_size, num_chunks) = stack_size_num_chunks(input.length);\n  //   bytes32[] memory stack = new bytes32[](stack_size);\n\n  //   uint32 stack_index = 0;\n  //   uint64 chunk_nb = 0;\n  //   uint64 aux_chunk_nb;\n  //   // uint32 max = 0;\n\n\n  //   for (i = 0; i < input.length; i += 1024) {\n\n  //     for(j = i; j < i+1024; j = j + 32) {\n  //       assembly {\n  //         temp := mload(add(input, j))\n  //       }\n  //       message[(j-i)/32] = temp;\n  //     }\n  //     res = process_chunk(key, message, 1024, chunk_nb, false);\n\n  //     stack[stack_index] = res[0];\n\n  //     stack_index += 1;\n\n  //     chunk_nb += 1;\n  //     aux_chunk_nb = chunk_nb;\n  //     // max = 0;\n  //     while ((aux_chunk_nb > 0) && (aux_chunk_nb & 1 == 0)) {\n  //       // max += 1;\n  //       // if (max == 100) {\n  //       //   res[0] = uint32(aux_chunk_nb);\n  //       //   return res;\n  //       // }\n  //       aux_chunk_nb = aux_chunk_nb / 2;\n\n  //       stack_index -= 2;\n  //       m[0] = stack[stack_index];\n  //       m[1] = stack[stack_index + 1];\n\n  //       if ( (chunk_nb == num_chunks) && (stack_index == 0) ) {\n  //         return compress(key, m, 0, 64, PARENT | ROOT);\n  //       }\n\n  //       res = compress(key, m, 0, 64, PARENT);\n  //       stack[stack_index] = res[0];\n  //       stack_index += 1;\n\n  //     }\n\n  //   }\n\n  //   return res;\n  // }\n\n  // function hash(\n  //   bytes memory input\n  // ) public view\n  // returns (uint32[16] memory)\n  // {\n  //   uint32[8] memory key = [IV0, IV1, IV2, IV3, IV4, IV5, IV6, IV7];\n  //   return keyed_hash(input, key);\n  // }\n\n  function keyed_hash(\n    bytes memory input,\n    bytes32 key\n  ) public view\n  returns (bytes32[2] memory) {\n\n    uint256 s;\n    uint256 num_full_chunks;\n    uint256 last_chunk_size;\n    uint256 total_chunks;\n    // prepare stack\n    (s, num_full_chunks, last_chunk_size) = stack_size_num_chunks(input.length);\n    if (last_chunk_size != 0) {\n      total_chunks = num_full_chunks + 1;\n    }\n    bytes32[] memory stack = new bytes32[](s);\n    bytes32[32] memory message;\n    bytes32 temp;\n    bytes32[2] memory m;\n\n    uint256 i;\n    uint256 stack_index;\n\n    uint64 chunk_id = 0;\n    uint64 aux_chunk_id;\n    while (chunk_id < num_full_chunks) {\n\n      s = 32 + (chunk_id + 1) * 1024;\n      for( i=(32+chunk_id*1024); i < s; i = i + 32) {\n        assembly {\n          temp := mload(add(input, i))\n        }\n        message[i-32-chunk_id*1024] = temp;\n      }\n\n      m = process_chunk(key, message, 1024, chunk_id, false);\n\n      stack[stack_index] = m[0];\n      stack_index += 1;\n\n      chunk_id += 1;\n      aux_chunk_id = chunk_id;\n      while ((aux_chunk_id > 0) && (aux_chunk_id & 1 == 0)) {\n        aux_chunk_id = aux_chunk_id / 2;\n        stack_index = stack_index - 2;\n        m[0] = stack[stack_index];\n        m[1] = stack[stack_index + 1];\n        if( (chunk_id == total_chunks) && (stack_index == 0) ) {\n          return compress(key, m, 0, 64, PARENT | ROOT);\n        }\n        m = compress(key, m, 0, 64, PARENT);\n        stack[stack_index] = m[0];\n        stack_index += 1;\n      }\n\n    }\n\n  }\n\n\n  function stack_size_num_chunks(uint256 input_size)\n    private pure  // total_chunks is converted to last_chunk_size right before return\n    returns (uint256 stack_size, uint256 num_full_chunks, uint256 total_chunks) {\n      // (stack_size, num_full_chunks, total_chunks) = stack_size_num_chunks(input.length);\n\n      // = size // 1024\n      num_full_chunks = input_size >> 10;\n\n      total_chunks = num_full_chunks;\n      if (input_size & 0x3ff != 0) {\n        // There must be one more chunk with 0 < its's size < 1024\n        total_chunks += 1;\n      }\n\n      // should be log2(total_chunks) + 1\n      stack_size = 1;\n      for (uint256 i = 1; i < total_chunks; i <<= 1) {\n        stack_size += 1;\n      }\n\n      total_chunks = input_size & 0x3ff; // replace this with the last_chunk_size\n  }\n\n  function mybytestouint32(bytes memory input)\n    public pure\n  returns (uint32[16] memory) {\n    // takes in at most 64 bytes\n    // returns an array of unsigned integers\n    uint data_ptr;\n    uint state_ptr;\n    uint i;\n    uint32[16] memory ret;\n\n    assembly {\n      data_ptr := add(input, 1)\n      state_ptr := add(ret, 31)\n    }\n\n    while (i < input.length) {\n      \n      assembly {\n        mstore8(state_ptr, mload(data_ptr))\n        data_ptr := add(data_ptr, 1)\n        state_ptr := sub(state_ptr, 1)\n\n        i := add(i, 1)\n      }\n\n      if (0 == (i & 0x3) ) {\n        state_ptr += 36;\n      }\n      \n    }\n\n    return ret;\n  }\n}\n",
  "sourcePath": "/Users/ionutcosmin/Documents/Dizertatie/blockchain/contracts/Blake3.sol",
  "compiler": {
    "name": "solc",
    "version": "0.5.16+commit.9c3226ce.Emscripten.clang"
  },
  "schemaVersion": "3.1.0",
  "updatedAt": "2021-01-19T19:43:14.562Z",
  "networkType": "ethereum",
  "devdoc": {
    "methods": {}
  },
  "userdoc": {
    "methods": {}
  }
}