{
  "contractName": "F",
  "abi": [
    {
      "constant": true,
      "inputs": [
        {
          "internalType": "bytes",
          "name": "input",
          "type": "bytes"
        }
      ],
      "name": "hash",
      "outputs": [
        {
          "internalType": "bytes32",
          "name": "",
          "type": "bytes32"
        }
      ],
      "payable": false,
      "stateMutability": "view",
      "type": "function"
    }
  ],
  "bytecode": "0x608060405234801561001057600080fd5b5061014a806100206000396000f3fe608060405234801561001057600080fd5b506004361061002b5760003560e01c8063aa1e84de14610030575b600080fd5b6100e96004803603602081101561004657600080fd5b810190808035906020019064010000000081111561006357600080fd5b82018360208201111561007557600080fd5b8035906020019184600183028401116401000000008311171561009757600080fd5b91908080601f016020809104026020016040519081016040528093929190818152602001838380828437600081840152601f19601f8201169050808301925050505050505091929192905050506100ff565b6040518082815260200191505060405180910390f35b600080828051906020012090508091505091905056fea265627a7a7231582074d146a28c3eedff8ca70b7d877f6a4c50fed8d0ef2f794654df1ac3217658d764736f6c63430005100032",
  "source": "pragma solidity >= 0.5.0;\n\ncontract F {\n\n  // keccak256(bytes memory) returns (bytes32)\n\n\n  function hash(bytes memory input)\n        public view returns (bytes32)\n  {\n      bytes32 x;\n      x = keccak256(input);\n      return x;\n  }\n\n}\n",
  "sourcePath": "/Users/ionutcosmin/Documents/Dizertatie/blockchain/contracts/F.sol",
  "compiler": {
    "name": "solc",
    "version": "0.5.16+commit.9c3226ce.Emscripten.clang"
  },
  "schemaVersion": "3.1.0",
  "updatedAt": "2021-02-17T18:40:46.335Z",
  "devdoc": {
    "methods": {}
  },
  "userdoc": {
    "methods": {}
  }
}