{
  "contractName": "F",
  "abi": [
    {
      "constant": true,
      "inputs": [
        {
          "internalType": "bytes",
          "name": "input",
          "type": "bytes"
        }
      ],
      "name": "hash",
      "outputs": [
        {
          "internalType": "bytes20",
          "name": "",
          "type": "bytes20"
        }
      ],
      "payable": false,
      "stateMutability": "view",
      "type": "function"
    }
  ],
  "bytecode": "0x608060405234801561001057600080fd5b506101e2806100206000396000f3fe608060405234801561001057600080fd5b506004361061002b5760003560e01c8063aa1e84de14610030575b600080fd5b6100e96004803603602081101561004657600080fd5b810190808035906020019064010000000081111561006357600080fd5b82018360208201111561007557600080fd5b8035906020019184600183028401116401000000008311171561009757600080fd5b91908080601f016020809104026020016040519081016040528093929190818152602001838380828437600081840152601f19601f82011690508083019250505050505050919291929050505061011d565b60405180826bffffffffffffffffffffffff19166bffffffffffffffffffffffff1916815260200191505060405180910390f35b6000806003836040518082805190602001908083835b602083106101565780518252602082019150602081019050602083039250610133565b6001836020036101000a038019825116818451168082178552505050505050905001915050602060405180830381855afa158015610198573d6000803e3d6000fd5b5050506040515160601b90508091505091905056fea265627a7a723158207630dfe79b26cb16387430cd30d1f2970f65fb13ff45004dddc8f649f1fb9ff864736f6c63430005100032",
  "source": "pragma solidity >= 0.5.0;\n\ncontract F {\n\n  // keccak256(bytes memory) returns (bytes32)\n\n\n  function hash(bytes memory input)\n        public view returns (bytes20)\n  {\n      bytes20 x;\n      x = ripemd160(input);\n      return x;\n  }\n\n}",
  "sourcePath": "/Users/ionutcosmin/Documents/Dizertatie/blockchain/contracts/F.sol",
  "compiler": {
    "name": "solc",
    "version": "0.5.16+commit.9c3226ce.Emscripten.clang"
  },
  "schemaVersion": "3.1.0",
  "updatedAt": "2021-02-17T11:48:34.369Z",
  "devdoc": {
    "methods": {}
  },
  "userdoc": {
    "methods": {}
  }
}